:1000000083C00000A1C000009FC000009DC0000090
:100010009BC0000099C0000097C0000095C0000080
:1000200093C0000091C000008FC000008DC0000090
:100030008BC0000089C0000087C0000085C00000A0
:1000400083C0000081C000007FC000007DC00000B0
:100050007BC0000079C0000077C0000075C00000C0
:1000600073C0000087C000006FC000006DC00000BA
:100070006BC0000069C0000067C0000065C00000E0
:1000800063C0000061C000005FC000005DC00000F0
:1000900004C3000059C0000057C0000055C0000054
:1000A00053C0000051C000004FC000004DC0000010
:1000B0004BC0000049C0000047C0000045C0000020
:1000C00043C0000041C000003FC000004E414E4907
:1000D0004E495459494E46CDCCCC3D0AD7233C1706
:1000E000B7D13877CC2B329595E6241FB14F0A0053
:1000F0000020410000C84200401C4620BCBE4CCA43
:100100001B0E5AAEC59D740011241FBECFEFD1E265
:10011000DEBFCDBF00E00CBF12E0A0E0B2E0E0E245
:10012000FAE100E00BBF02C007900D92A23CB107BC
:10013000D9F724E0A2ECB2E001C01D92A13DB207C4
:10014000E1F716D00C940E0D5BCFFC010FB6F894BE
:100150006091CB047091CC048091CD049091CE0439
:100160000FBE309721F0608371838283938308955B
:1001700041D3FFCF1F920F920FB60F9211240BB6EF
:100180000F928F939F93EF93FF938091C6008432D9
:10019000B1F49091C203911142C081E08093C303F6
:1001A0001092C403E091C403F0E0EE53FD4F84E2EB
:1001B00080838091C4038F5F8093C4033FC090917C
:1001C000C303992391F08A3279F19091C20391117E
:1001D00030C0E091C403F0E0EE53FD4F8083809186
:1001E000C4038F5F8093C40329C09091C3039923F4
:1001F00029F18A3219F58091C20381111FC0E09163
:10020000C403F0E0EE53FD4F8AE280831092C403F2
:1002100081E08093C2031092C303F8940FC09091C1
:10022000C3039111D2CF08C08091C3038111E3CFE2
:1002300005C08091C30302C08091C303FF91EF9179
:100240009F918F910F900BBE0F900FBE0F901F903C
:100250001895EF92FF921F93CF93DF931F92CDB724
:10026000DEB77C01162F60E084E236D319828981E3
:10027000811768F49981F701E90FF11D60E0808131
:100280002BD399819F5F99839981911798F360E0AF
:100290008DE022D360E08AE01FD30F90DF91CF91F1
:1002A0001F91FF90EF9008950F931F93CF93DF93CB
:1002B00000D01F921F92CDB7DEB78C0119828981C1
:1002C000F801E80FF11D80818A3291F099818A81CD
:1002D000F801E90FF11D908198279A8399819F5F1A
:1002E00099838981F801E80FF11D80818A3271F7C5
:1002F0008A811F928F9380E392E09F938F93CE0128
:1003000003969F938F9316D789818F5F8983898105
:10031000F801E80FF11D8B81808389818F5F8983CC
:100320008981F801E80FF11D8C8180830F900F9077
:100330000F900F900F900F900F900F900F900F90C5
:100340000F90DF91CF911F910F910895CF93DF937D
:100350001F921F92CDB7DEB7AC0188E089831A8265
:10036000898189818B3098F429819A81FB01E90F79
:10037000F11D9081FA01E20FF11D90839A819F5F38
:100380009A8399819F5F998399819B3068F3CA0111
:100390008BDF0F900F90DF91CF910895CF93DF9374
:1003A000CDB7DEB76C970FB6F894DEBF0FBECDBFEA
:1003B0001092C4031092C3031092C2038AE1EAE0D0
:1003C000F2E0DE01139601900D928A95E1F740E08C
:1003D00060E875E280E090E05DD29A83898389814C
:1003E0009A81009709F45CC02FEF83ED90E32150D0
:1003F00080409040E1F700C0000065E372E0CE016C
:100400000396A4DF6AE1CE01039623DF2FEF82E596
:1004100097E0215080409040E1F700C0000069E380
:1004200072E0CE01039692DF6AE1CE01039611DFFE
:100430002FEF82E597E0215080409040E1F700C027
:1004400000006DE372E0CE01039680DF6AE1CE0129
:100450000396FFDE2FEF82E597E021508040904029
:10046000E1F700C0000061E472E0CE0103966EDFA8
:100470006AE1CE010396EDDE2FEF82E597E0215091
:1004800080409040E1F700C0000065E472E0CE01DA
:1004900003965CDF6AE1CE010396DBDE89819A81F7
:1004A0006C960FB6F894DEBF0FBECDBFDF91CF9133
:1004B0000895AF92BF92CF92DF92EF92FF920F9387
:1004C0001F93CF93DF93CDB7DEB728970FB6F8947D
:1004D000DEBF0FBECDBF6C018B01ADB6BEB6CB018A
:1004E00001962DB73EB7281B390B0FB6F8943EBFC7
:1004F0000FBE2DBF8DB79EB701967C01AB01B60133
:10050000F2D5F701E00FF11F1082C701CAD5698348
:100510007A838B839C83C601800F911FC2D56D8324
:100520007E838F8398876D817E818F819885C98036
:10053000DA80EB80FC8020E030E040E752E447D2F4
:10054000A7019601DCD10FB6F894BEBE0FBEADBEBA
:1005500028960FB6F894DEBF0FBECDBFDF91CF91C6
:100560001F910F91FF90EF90DF90CF90BF90AF90D1
:100570000895EF92FF920F931F93CF93DF931F92F3
:100580001F92CDB7DEB78B018FD57C019A8389830B
:1005900069E472E0CE010196B5D569E472E0CE015E
:1005A0000196B0D569E472E0CE010196ABD562E068
:1005B00070E07FDFF801628373838483958369E44D
:1005C00072E0CE0101969ED5FC018081833551F405
:1005D000F80182819381A481B581B058828393838D
:1005E000A483B58369E472E0CE0101968BD563E004
:1005F00070E05FDFF801668377838087918769E425
:1006000072E0CE0101967ED5FC0180818735B9F478
:10061000F80186819781A085B185B058868397833C
:10062000A087B1870CC03DD53AD2F80171836083B1
:1006300003C0F80111821082C70146D419C069E4D1
:1006400072E0CE0101965ED569E472E0CE010196BA
:1006500059D569E472E0CE01019654D569E472E09F
:10066000CE0101964FD5FC012081222311F3DBCF6F
:100670000F900F90DF91CF911F910F91FF90EF900E
:1006800008952091C203222339F0BC0182EC92E04C
:1006900070DF1092C203789408951F920F920FB6E4
:1006A0000F9211240BB60F922F933F934F935F93AA
:1006B0008F939F93AF93BF93EF93FF93CF93DF936A
:1006C0001F921F92CDB7DEB7F8941092C5041A821C
:1006D000198289819A81843F914008F5A8ECB0E0A5
:1006E0002EEC30E08C91882384F4E091C50481E005
:1006F0008E0F8093C5044E2F50E0F9018081FA01DE
:10070000EB53FC4F80831A82198289819A8101966A
:100710009A83898389819A81843F914018F381E08B
:100720008093C6040F900F90DF91CF91FF91EF91CE
:10073000BF91AF919F918F915F914F913F912F9179
:100740000F900BBE0F900FBE0F901F901895CF9378
:10075000DF93CDB7DEB72A970FB6F894DEBF0FBE92
:10076000CDBF1A8219821B821C821D821E821F82AB
:10077000188619861A868FEF84B985B92FEF84E31E
:100780009CE0215080409040E1F700C0000015B887
:1007900005DE03C0CE01019674DFCB80DC80ED80E6
:1007A000FE8062E070E08AEA92E083DE9B01AC01A9
:1007B000C701B601A3D027E137EB41ED58E34DD295
:1007C0001816ACF4CF80D884E984FA8463E070E032
:1007D00085EB92E06EDE9B01AC01C701B6018ED0C5
:1007E00027E137EB41ED58E338D218169CF28FEF32
:1007F00085B9FFCF80E090E0A8DCCB0147D4A7DF2C
:100800001F93CF93DF931F921F92CDB7DEB7142FA4
:10081000DC01CB01880F991FAA1FBB1F880F991FEE
:10082000AA1FBB1F9C01AD01220F331F441F551F80
:10083000220F331F441F551F60E072E18AE790E0EA
:1008400073D2215031093A83298389819A81811594
:100850009041C0F489819A810097B1F0112349F049
:1008600089819A819093CD008093CC0089819A816F
:100870000BC089819A819093C5008093C4008981BF
:100880009A8102C080E090E00F900F90DF91CF91AD
:100890001F9108951F93CF93DF931F921F92CDB79F
:1008A000DEB7142FADDF9A83898389819A810097FF
:1008B00069F0112331F088E98093C90089819A8118
:1008C00005C088E18093C10089819A810F900F90C3
:1008D000DF91CF911F910895662341F0E8ECF0E09D
:1008E000908195FFFDCF8093CE000895E0ECF0E07D
:1008F000908195FFFDCF8093C60008955058BB2787
:10090000AA270ED070C161D130F066D120F031F449
:100910009F3F11F41EF456C10EF4E095E7FB4CC165
:10092000E92F72D180F3BA1762077307840795071E
:1009300018F071F49EF58AC10EF4E0950B2EBA2FD3
:10094000A02D0B01B90190010C01CA01A0011124D5
:10095000FF27591B99F0593F50F4503E68F11A1681
:10096000F040A22F232F342F4427585FF3CF469512
:1009700037952795A795F0405395C9F77EF41F1634
:10098000BA0B620B730B840BBAF09150A1F0FF0FFE
:10099000BB1F661F771F881FC2F70EC0BA0F621FEA
:1009A000731F841F48F4879577956795B795F795DA
:1009B0009E3F08F0B3CF9395880F08F09927EE0F6C
:1009C000979587950895D4D008F481E008950CD0C8
:1009D0000AC102D140F0F9D030F021F45F3F19F0A4
:1009E000EBC0511134C1EEC00FD198F39923C9F374
:1009F0005523B1F3951B550BBB27AA276217730725
:100A0000840738F09F5F5F4F220F331F441FAA1FD8
:100A1000A9F333D00E2E3AF0E0E830D09150504098
:100A2000E695001CCAF729D0FE2F27D0660F771F46
:100A3000881FBB1F261737074807AB07B0E809F028
:100A4000BB0B802DBF01FF2793585F4F2AF09E3FBD
:100A5000510568F0B1C0FBC05F3FECF3983EDCF39A
:100A6000869577956795B795F7959F5FC9F7880F36
:100A7000911D9695879597F90895E1E0660F771F88
:100A8000881FBB1F621773078407BA0720F0621B19
:100A9000730B840BBA0BEE1F88F7E0950895BCD05A
:100AA00088F09F5790F0B92F9927B751A0F0D1F057
:100AB000660F771F881F991F1AF0BA95C9F712C0E1
:100AC000B13081F0C3D0B1E00895C0C0672F782F56
:100AD0008827B85F39F0B93FCCF38695779567954D
:100AE000B395D9F73EF490958095709561957F4FB9
:100AF0008F4F9F4F0895E89409C097FB3EF490955F
:100B00008095709561957F4F8F4F9F4F9923A9F0E6
:100B1000F92F96E9BB279395F69587957795679575
:100B2000B795F111F8CFFAF4BB0F11F460FF1BC0B9
:100B30006F5F7F4F8F4F9F4F16C0882311F096E94C
:100B400011C0772321F09EE8872F762F05C06623FA
:100B500071F096E8862F70E060E02AF09A95660FB3
:100B6000771F881FDAF7880F9695879597F908956C
:100B7000990F0008550FAA0BE0E8FEEF16161706AE
:100B8000E807F907C0F012161306E407F50798F016
:100B9000621B730B840B950B39F40A2661F0232B2F
:100BA000242B252B21F408950A2609F4A140A695AB
:100BB0008FEF811D811D089597F99F6780E870E090
:100BC00060E008959FEF80EC089500240A941616C3
:100BD000170618060906089500240A94121613062B
:100BE000140605060895092E0394000C11F48823B9
:100BF00052F0BB0F40F4BF2B11F460FF04C06F5FD5
:100C00007F4F8F4F9F4F089557FD9058440F551FAA
:100C100059F05F3F71F04795880F97FB991F61F07E
:100C20009F3F79F087950895121613061406551FF5
:100C3000F2CF4695F1DF08C0161617061806991F61
:100C4000F1CF86957105610508940895E894BB2756
:100C500066277727CB0197F908958ADF08F48FEF8D
:100C600008950BD0C0CFB1DF28F0B6DF18F0952380
:100C700009F0A2CFA7CF1124EACFC6DFA0F3959F3A
:100C8000D1F3950F50E0551F629FF001729FBB2773
:100C9000F00DB11D639FAA27F00DB11DAA1F649F1F
:100CA0006627B00DA11D661F829F2227B00DA11DD2
:100CB000621F739FB00DA11D621F839FA00D611D58
:100CC000221F749F3327A00D611D231F849F600D79
:100CD000211D822F762F6A2F11249F5750408AF0B2
:100CE000E1F088234AF0EE0FFF1FBB1F661F771F3E
:100CF000881F91505040A9F79E3F510570F05CCF7E
:100D0000A6CF5F3FECF3983EDCF386957795679529
:100D1000B795F795E7959F5FC1F7FE2B880F911D5B
:100D20009695879597F90895A1E21A2EAA1BBB1BE9
:100D3000FD010DC0AA1FBB1FEE1FFF1FA217B307A7
:100D4000E407F50720F0A21BB30BE40BF50B661FBD
:100D5000771F881F991F1A9469F760957095809581
:100D600090959B01AC01BD01CF01089509D0A59FCD
:100D7000900DB49F900DA49F800D911D1124089596
:100D8000A29FB001B39FC001A39F700D811D1124CC
:100D9000911DB29F700D811D1124911D0895CF9357
:100DA000DF938230910510F482E090E0E091C90475
:100DB000F091CA0420E030E0C0E0D0E0309711F1BB
:100DC0004081518148175907C0F04817590761F40D
:100DD00082819381209719F09B838A832BC0909303
:100DE000CA048093C90426C02115310519F04217A1
:100DF000530718F49A01BE01DF01EF010280F3816D
:100E0000E02DDCCF2115310509F1281B390B2430E9
:100E1000310590F412968D919C911397611571058F
:100E200021F0FB019383828304C09093CA048093D2
:100E3000C904FD01329644C0FD01E20FF31F819306
:100E40009193225031092D933C933AC02091C704CD
:100E50003091C804232B41F4209102023091030207
:100E60003093C8042093C7042091000230910102FE
:100E70002115310541F42DB73EB740910402509140
:100E80000502241B350BE091C704F091C804E2175A
:100E9000F307A0F42E1B3F0B2817390778F0AC019D
:100EA0004E5F5F4F2417350748F04E0F5F1F50937A
:100EB000C8044093C7048193919302C0E0E0F0E03E
:100EC000CF01DF91CF9108950F931F93CF93DF93BD
:100ED000009709F48CC0FC013297138212820091B2
:100EE000C9041091CA040115110581F420813181D2
:100EF000820F931F2091C7043091C8042817390727
:100F000079F5F093C804E093C70471C0D80140E0BC
:100F100050E0AE17BF0750F412962D913C911397F5
:100F2000AD012115310509F1D901F3CF9D01DA0198
:100F30003383228360817181860F971F8217930705
:100F400069F4EC0128813981260F371F2E5F3F4F4E
:100F5000318320838A819B8193838283452B29F46B
:100F6000F093CA04E093C90442C01396FC93EE9335
:100F70001297ED01499159919E01240F351FE217F7
:100F8000F30771F480819181840F951F0296119669
:100F90009C938E938281938113969C938E93129748
:100FA000E0E0F0E0D80112968D919C9113970097A4
:100FB00019F0F8018C01F6CF8D919C9198012E5F6C
:100FC0003F4F820F931F2091C7043091C804281708
:100FD000390769F4309729F41092CA041092C904B1
:100FE00002C0138212821093C8040093C704DF91D9
:100FF000CF911F910F9108958F929F92AF92BF92C0
:10100000CF92DF92EF92FF92CF93DF93EC01688152
:1010100079818A819B81611571058105910521F492
:1010200064E279ED8BE597E02DE133EF41E050E0AC
:10103000D3D449015A019B01AC01A7EAB1E496DE81
:101040006B017C01ACEEB4EFA5019401E3D4DC01AB
:10105000CB018C0D9D1DAE1DBF1DB7FF03C00197B9
:10106000A109B04888839983AA83BB839F77DF91C6
:10107000CF91FF90EF90DF90CF90BF90AF909F9077
:101080008F900895B9CF86E092E0B6CFA0E0B0E0AF
:101090008093060290930702A0930802B09309027E
:1010A00008956627772763C20F931F93CF93DF932B
:1010B0008C01FC0101900020E9F7CF01801B910B0E
:1010C0006EDEEC01009711F0B80106D0CE01DF9181
:1010D000CF911F910F910895FB01DC0101900D92BA
:1010E0000020E1F70895FB01DC014150504048F039
:1010F00001900D920020C9F701C01D92415050404F
:10110000E0F70895FC01A081B181AD01109681F056
:101110003D91FB01019003160110E1F7C9F7002092
:1011200011F4D00102C01E921196FC01A083B1837C
:10113000CA0108950F931F93CF93DF93CDB7DEB706
:101140002E970FB6F894DEBF0FBECDBF0E891F8954
:1011500086E08C831A8309838FEF9FE79E838D83BC
:10116000AE01465E5F4F688D798DCE01019611D03C
:101170002F813885F801E20FF31F10822E960FB6EB
:10118000F894DEBF0FBECDBFDF91CF911F910F91BD
:1011900008952F923F924F925F926F927F928F921B
:1011A0009F92AF92BF92CF92DF92EF92FF920F93F6
:1011B0001F93CF93DF93CDB7DEB72C970FB6F8947C
:1011C000DEBF0FBECDBF7C016B018A01FC0117821F
:1011D0001682838181FFB0C1CE0101964C01F701D7
:1011E0009381F60193FD859193FF81916F0188238F
:1011F00009F49EC1853239F493FD859193FF819165
:101200006F01853221F4B70190E04DD3E8CF512C26
:10121000312C20E02032A0F48B3269F030F480329F
:1012200059F0833269F420612CC08D3239F080335B
:1012300039F4216026C02260246023C0286021C0C8
:1012400027FD27C030ED380F3A3078F426FF06C06E
:10125000FAE05F9E300D1124532E13C08AE0389EB1
:10126000300D1124332E20620CC08E3221F426FD65
:101270005FC1206406C08C3611F4206802C0883635
:1012800041F4F60193FD859193FF81916F018111E6
:10129000C1CF982F9F7D9554933028F40C5F1F4F3A
:1012A000FFE3F9830DC0833631F0833771F0833566
:1012B00009F057C021C0F801808189830E5F1F4F5C
:1012C00044244394512C540114C03801F2E06F0EB1
:1012D000711CF801A080B18026FF03C0652D70E06D
:1012E00002C06FEF7FEFC5012C87D2D22C018301A2
:1012F0002C852F77222E16C03801F2E06F0E711C5C
:10130000F801A080B18026FF03C0652D70E002C007
:101310006FEF7FEFC5012C87B0D22C012C852068A0
:10132000222E830123FC19C0832D90E04816590614
:10133000A0F4B70180E290E0B6D23A94F5CFF5017F
:1013400027FC859127FE81915F01B70190E0ABD228
:1013500031103A94F1E04F1A51084114510479F7D1
:10136000DEC0843611F0893631F5F80127FF07C059
:1013700060817181828193810C5F1F4F08C0608101
:101380007181072E000C880B990B0E5F1F4F2F7673
:10139000722E97FF09C090958095709561957F4F4B
:1013A0008F4F9F4F2068722E2AE030E0A401B3D205
:1013B000A82EA81843C0853729F42F7EB22E2AE024
:1013C00030E025C0F22FF97FBF2E8F36C1F018F420
:1013D000883579F0ADC0803719F0883721F0A8C082
:1013E0002F2F2061B22EB4FE0DC08B2D8460B82E3D
:1013F00009C024FF0AC09F2F9660B92E06C028E0BE
:1014000030E005C020E130E002C020E132E0F80128
:10141000B7FE07C060817181828193810C5F1F4F8D
:1014200006C06081718180E090E00E5F1F4FA401D3
:1014300072D2A82EA818FB2DFF777F2E76FE0BC048
:10144000372D3E7FA51450F474FE0AC072FC08C00C
:10145000372D3E7E05C0BA2C372D03C0BA2C01C0F3
:10146000B52C34FF0DC0FE01EA0DF11D80818033E3
:1014700011F4397E09C032FF06C0B394B39404C09E
:10148000832F867809F0B39433FD12C030FF06C075
:101490005A2CB31418F4530C5B18B32CB31460F427
:1014A000B70180E290E03C87FED1B3943C85F6CF53
:1014B000B31410F43B1801C0312C34FF11C0B70134
:1014C00080E390E03C87EFD13C8532FF16C031FDD0
:1014D00003C088E790E002C088E590E0B7010CC047
:1014E000832F867851F031FF02C08BE201C080E289
:1014F00037FD8DE2B70190E0D6D1A51430F4B701E5
:1015000080E390E0D0D15A94F8CFAA94F401EA0D88
:10151000F11D8081B70190E0C6D1A110F6CF332034
:1015200009F45DCEB70180E290E0BDD13A94F7CFE7
:10153000F7018681978102C08FEF9FEF2C960FB63F
:10154000F894DEBF0FBECDBFDF91CF911F910F91F9
:10155000FF90EF90DF90CF90BF90AF909F908F90D3
:101560007F906F905F904F903F902F9008956F9273
:101570007F928F929F92AF92BF92CF92DF92EF9223
:10158000FF920F931F93CF93DF93EC017B016115C3
:10159000710519F0DB018D939C938E010F5F1F4F36
:1015A0007880872D90E049D1892B11F0E801F5CFA3
:1015B000BDE27B1205C00F5F1F4F7980C1E008C0FC
:1015C000EBE27E1204C08E010E5F1F4F7980C0E0F7
:1015D0006801F1E0CF1AD10843E050E064ED70E01B
:1015E000C60133D1892BE9F4680122E0C20ED11C77
:1015F00045E050E06FEC70E0C60127D1892B21F463
:10160000680187E0C80ED11CE114F10419F0D7017C
:10161000CD92DC92C111F9C060E070E080E89FE7F4
:10162000FDC043E050E06CEC70E0C6010ED1892BA8
:1016300051F4E114F10409F4EDC00E5F1F4FF701FE
:1016400011830083E7C0680160E070E0CB0100E037
:1016500010E0F601D0EDD70DDA3050F52C2F2260D6
:10166000622E2C2F2870C2FF05C0211127C00F5FEA
:101670001F4F24C0222311F001501109A5E0B0E052
:101680009B01AC0173DB4B015C01880C991CAA1C0B
:10169000BB1CC501B4016D0F711D811D911D683901
:1016A000A9E97A078A07A9E19A0740F0C66005C050
:1016B000DE3F51F4C3FD44C0C8606C2EBFEFCB1AAF
:1016C000DB0A7080C62DC5CF2D2F2F7D2531C1F5AA
:1016D00040814D3211F4C06106C04B3221F0319689
:1016E00021E030E006C03296D60111964C9122E0FE
:1016F00030E0A0EDA40FAA3018F0E21BF30B20C0DD
:1017000040E050E04038BCE05B075CF49A01220FF7
:10171000331F220F331F420F531F440F551F4A0F11
:10172000511D3196DF0111972C91A0EDA20FAA3027
:1017300048F3C4FF03C0519541955109040F151F8B
:10174000C1FF07C0E114F10421F03197D701ED93F7
:10175000FC93D1D9C370C33019F06B017C0106C072
:101760006B017C01F7FAF094F7F8F09420E030E098
:10177000A901C701B60127D9882309F443C017FF7F
:1017800006C0119501951109CBEED0E002C0C3E06F
:10179000D1E05E01B8E1AB1AB1084601BE2DAF2D14
:1017A00090E2E92EF12C0E151F057CF0FE0125912B
:1017B000359145915491B4018B2F9A2F52DA4B01F8
:1017C000B82FA92F0E191F09EECF2497F594E7948F
:1017D000CA15DB0541F76401EB2EFA2E8E2D880F1A
:1017E0008F2D881F8F3F41F020E030E0A901C70115
:1017F000B601E9D8811106C082E290E09093D0044E
:101800008093CF04C701B60109C060E070E080E8B2
:101810009FEF04C060E070E080EC9FE7DF91CF9124
:101820001F910F91FF90EF90DF90CF90BF90AF90FE
:101830009F908F907F906F9008959111CAC08032D1
:1018400019F089508550D0F70895FB01DC01415013
:10185000504088F08D9181341CF08B350CF4805E03
:10186000659161341CF06B350CF4605E861B611170
:1018700071F3990B0895881BFCCFFC010590615012
:1018800070400110D8F7809590958E0F9F1F089596
:10189000FC016150704001900110D8F7809590953F
:1018A0008E0F9F1F08950F931F93CF93DF93FB011C
:1018B000238121FD03C08FEF9FEF28C022FF16C0B8
:1018C00046815781248135814217530744F4A08112
:1018D000B1819D012F5F3F4F318320838C932681FF
:1018E00037812F5F3F4F3783268310C0EB01092FCD
:1018F000182F0084F185E02D1995892BE1F68E8152
:101900009F8101969F838E83812F902FDF91CF91AE
:101910001F910F910895FA01AA27283051F1203123
:1019200081F1E8946F936E7F6E5F7F4F8F4F9F4F73
:10193000AF4FB1E03ED0B4E03CD0670F781F891FB5
:101940009A1FA11D680F791F8A1F911DA11D6A0F83
:10195000711D811D911DA11D20D009F468943F9136
:101960002AE0269F11243019305D3193DEF6CF0135
:101970000895462F4770405D4193B3E00FD0C9F7FB
:10198000F6CF462F4F70405D4A3318F0495D31FD68
:101990004052419302D0A9F7EACFB4E0A6959795BB
:1019A000879577956795BA95C9F700976105710591
:1019B00008959B01AC010A2E0694579547953795DB
:1019C0002795BA95C9F7620F731F841F951FA01D35
:1019D0000895992788270895052E97FB16F40094FB
:1019E0000FD057FD05D0A0D907FC02D046F408C09F
:1019F00050954095309521953F4F4F4F5F4F08953B
:101A000090958095709561957F4F8F4F9F4F08956A
:101A1000B7FFACC9ABD9821B930B0895F894FFCFE5
:101A20000000D104200001000000505542582C3421
:101A3000302C5F5F5F2C302C302C302C302C302C35
:101A4000302A5F5F00505542582C30302A33330023
:101A50002530325800474C4C0047534100475356FD
:101A600000524D4300565447002C00253032642567
:101A70003032642E25303264253033640025303313
:101A800064253032642E25303264253033640030D2
:101A9000303030302E30303030300031323034356C
:101AA0002E393633393500323231322E333534382F
:101AB000320030303132332E303733353300303866
:101AC0003630322E393335323400343731372E3117
:101AD000313339390030303833332E3931353930FC
:021AE000000004
:00000001FF
