:10000000B0C00000CEC00000CCC00000CAC00000DC
:10001000C8C00000C6C00000C4C00000C2C00000CC
:10002000C0C00000BEC00000BCC00000BAC00000DC
:10003000B8C00000B6C00000B4C00000B2C00000EC
:10004000B0C00000AEC00000ACC00000AAC00000FC
:10005000A8C00000A6C00000A4C00000A2C000000C
:10006000A0C0000015C600009CC000009AC000009F
:1000700098C0000096C0000094C0000092C000002C
:1000800090C000008EC000008CC000008AC000003C
:1000900088C0000086C0000084C0000082C000004C
:1000A00080C000007EC000007CC000007AC000005C
:1000B00078C0000076C0000074C0000072C000006C
:1000C00070C000006EC000006CC00000080000009E
:1000D000BE922449123EABAAAA2ABECDCCCC4C3E3D
:1000E00000000080BEABAAAAAA3E00000000BF002C
:1000F0000000803F0000000000084178D3BB438728
:10010000D1133D190E3CC3BD4282AD2B3E68EC823B
:1001100076BED98FE1A93E4C80EFFFBE01C4FF7FC0
:100120003F00000000004E414E494E495459494E8F
:1001300046CDCCCC3D0AD7233C17B7D13877CC2B52
:10014000329595E6241FB14F0A000020410000C8F7
:100150004200401C4620BCBE4CCA1B0E5AAEC59D78
:10016000740011241FBECFEFD1E2DEBFCDBF00E08F
:100170000CBF12E0A0E0B2E0E4E4FFE200E00BBF5D
:1001800002C007900D92A837B107D9F723E0A8E77E
:10019000B2E001C01D92AE37B207E1F7DFD00C9498
:1001A000A0172ECF80B1089583E080938100109234
:1001B0008500109284000895E4E8F0E06081718188
:1001C0001182108280E090E00E94751020E034E2FD
:1001D00044EF57E40C949E0F08952F923F924F9254
:1001E0005F926F927F928F929F92AF92BF92CF92C7
:1001F000DF92EF92FF920F931F93CF93DF93CDB7D0
:10020000DEB72C970FB6F894DEBF0FBECDBF1C0132
:100210008B0149015A01D0DF69837A838B839C83E8
:10022000F101C480D580E680F7802DEC3CEC4CE1F8
:1002300051E4F80160817181828193810E94350FC0
:100240006D837E838F83988729813A814B815C817E
:10025000C701B6010E94E311A50194010E94360F67
:1002600069877A878B879C8720E030E0A9016D81C0
:100270007E818F8198850E94E3112B013C012981A9
:100280003A814B815C81CA01B9010E94E3119B0153
:10029000AC01C301B2010E94E3119B01AC0169856D
:1002A0007A858B859C850E94360F2B013C019B0132
:1002B000AC01C501B4010E94350F4B015C0128E679
:1002C00033EB4AE25FE30E94E3119B01AC01C301FF
:1002D000B2010E94360FF1016083718382839383A0
:1002E0002D813E814F81588569817A818B819C81E6
:1002F0000E94E3119B01AC01C701B6010E94360FB9
:100300006B017C012FE630EF45E05DE3C501B401F0
:100310000E94E3119B01AC01C701B6010E94360F98
:10032000F10164837583868397832C960FB6F894C6
:10033000DEBF0FBECDBFDF91CF911F910F91FF9018
:10034000EF90DF90CF90BF90AF909F908F907F9075
:100350006F905F904F903F902F9008950E941B0EDA
:1003600080E090E0089580E00E94590E2D985F9AF9
:100370002E9A08952D9A08951F93CF93DF931F927D
:10038000CDB7DEB7162F8F778983EDDF89810E9485
:10039000660E812F0E94660EEDDF0F90DF91CF91E8
:1003A0001F910895CF93DF931F921F92CDB7DEB7B1
:1003B00080688983D8DF89810E94660E81E00E946F
:1003C000750E6A83D7DF8A810F900F90DF91CF91EE
:1003D0000895CF93DF9300D000D0CDB7DEB71A8257
:1003E00019821C821B821E821D828FE3DBDF90E05C
:1003F0009A83898380E4D6DF90E09C838B83898114
:100400009A812B813C81982F8827822B932B9E8366
:100410008D838D819E8126960FB6F894DEBF0FBE28
:10042000CDBFDF91CF910895CF93DF9300D000D05F
:10043000CDB7DEB71A8219821C821B821E821D82F2
:100440008DE3B0DF90E09A8389838EE3ABDF90E0A9
:100450009C838B8389819A812B813C81982F88276B
:10046000822B932B9E838D838D819E8126960FB642
:10047000F894DEBF0FBECDBFDF91CF910895CF932B
:10048000DF9300D000D0CDB7DEB71A8219821C826C
:100490001B821E821D828BE385DF90E09A83898315
:1004A0008CE380DF90E09C838B8389819A812B8110
:1004B0003C81982F8827822B932B9E838D838D815F
:1004C0009E8126960FB6F894DEBF0FBECDBFDF919A
:1004D000CF910895CF93DF9300D000D0CDB7DEB792
:1004E0001A8219821C821B821E821D8287E45ADFB7
:1004F00090E09A83898388E455DF90E09C838B8326
:1005000089819A812B813C81982F8827822B932B7C
:100510009E838D838D819E8126960FB6F894DEBFD3
:100520000FBECDBFDF91CF910895CF93DF9300D061
:1005300000D0CDB7DEB71A8219821C821B821E82C0
:100540001D8285E42FDF90E09A83898386E42ADF89
:1005500090E09C838B8389819A812B813C81982FA9
:100560008827822B932B9E838D838D819E81269657
:100570000FB6F894DEBF0FBECDBFDF91CF910895C7
:10058000CF93DF9300D000D0CDB7DEB71A821982A7
:100590001C821B821E821D8283E404DF90E09A830A
:1005A000898384E4FFDE90E09C838B8389819A8138
:1005B0002B813C81982F8827822B932B9E838D83C0
:1005C0008D819E8126960FB6F894DEBF0FBECDBFFB
:1005D000DF91CF910895EF92FF920F931F93CF93E6
:1005E000DF931F92CDB7DEB77C01198248DFBC01D3
:1005F000990F880B990B0E947710F7016083718324
:100600008283938311DFBC01990F880B990B0E94A1
:100610007710F7016483758386839783DADEBC01E4
:10062000990F880B990B0E947710F70160877187EB
:1006300082879387A5DFBC01990F880B990B0E94D5
:100640007710F70164877587868797876EDFBC010F
:10065000990F880B990B0E947710F701608B718BB3
:10066000828B938B37DFBC01990F880B990B0E940B
:100670007710F701648B758B868B978B89818981C5
:10068000833008F046C0998189818701F4E09F9FFB
:10069000000D111D1124F70124E0829FE00DF11DD2
:1006A00011242DEC3CEC4CE95BEB60817181828183
:1006B00093810E94E311F8016083718382839383A5
:1006C0000981E98110E00D5F1F4F000F111F000F1E
:1006D000111F0E0D1F1DF0E03396EE0FFF1FEE0FE2
:1006E000FF1FEE0DFF1D20E931EC49EF5CE3608157
:1006F0007181828193810E94E311F801608371838B
:100700008283938389818F5F89838981833008F411
:10071000BACF0F90DF91CF911F910F91FF90EF9083
:10072000089560E88BE628DE8FE19EE40197F1F7FB
:1007300000C0000067E088E61FDE8FE19EE40197BD
:10074000F1F700C0000060E088E616CE0895CF9370
:10075000DF931F92CDB7DEB7259AE3DF8FEC97E0EA
:100760000197F1F700C0000060E18AE605DE60E075
:100770008BE602DE85E716DE89838981869589838B
:100780008FE19EE40197F1F700C0000068E18CE181
:10079000F3DD8FE19EE40197F1F700C0000060E116
:1007A0008BE1EADD0F90DF91CF91089580E00E9408
:1007B000590E2D9A5F9A2E9808952E9A0895F6DF75
:1007C0008EE10E94660E8FE697E10197F1F700C077
:1007D0000000F3CF08951F93CF93DF931F921F92D2
:1007E000CDB7DEB7182FE2DF812F0E94660E82E0C0
:1007F0000E94750E7A836983E0DF89819A810F9068
:100800000F90DF91CF911F910895EF92FF920F9378
:100810001F93CF93DF931F92CDB7DEB77C0181E0AA
:10082000898389818981883098F4098110E0000FDB
:10083000111F0E0D1F1D8981880F8056CCDFF80116
:100840009183808399819F5F99838981883068F340
:100850000F90DF91CF911F910F91FF90EF9008952E
:10086000CF93DF93EC01269AAADFCE01CEDFDF9192
:10087000CF9108959BDF80E50E94660E9EDF8FEC8E
:1008800097E00197F1F700C0000008958FDF80E442
:100890000E94660E92DF8FEC97E00197F1F700C09F
:1008A00000000895CF93DF9300D01F92CDB7DEB73D
:1008B0007DDF80E00E94660E83E00E94750E6983F2
:1008C0007A838B839C8379DF69817A818B819C8198
:1008D0000F900F900F900F90DF91CF9108952F926E
:1008E0003F924F925F926F927F928F929F92AF92C0
:1008F000BF92CF92DF92EF92FF920F931F93CF930D
:10090000DF93CDB7DEB76E970FB6F894DEBF0FBE9C
:10091000CDBF8C013B014A01FC0164817581868158
:1009200097810E9475106B017C01F301828593858C
:10093000BC0180E090E00E94751020E030E040E8CB
:1009400053E40E94E3119B01AC01C701B6010E9470
:10095000350F0E94401069837A838B839C83C98002
:10096000DA80EB80FC80F3016481758180E090E0A7
:100970000E94751020E030E040E058E40E94E3114E
:100980001B012C01F301A085B185A70196010E94EE
:10099000B1120E94771020E030E040E85CE30E9452
:1009A000E3119B01AC01C201B1010E94360F0E940C
:1009B00006102D833E834F83588769877A878B87FC
:1009C0009C87C980DA80EB80FC80F30162817381AF
:1009D00080E090E00E94751020E030E040E857E4AD
:1009E0000E94E3111B012C01F301A681B781A7012D
:1009F00096010E94B1120E94771020E030E040E0A2
:100A00005CE30E94E3119B01AC01C201B1010E94B1
:100A1000360F0E9406102D873E874F87588B698BB3
:100A20007A8B8B8B9C8B29813A814B815C81F30182
:100A3000A485B5850E94B1120E94771020E030E0B5
:100A400040E054E30E94E31120E030E04AEF54E438
:100A50000E94360F20E030E048EC52E40E949E0FE6
:100A60000E944010F4016483758386839783AD846C
:100A7000BE84CF84D888E988FA889B898C892D80A8
:100A80003E804F80588469847A84FB85FD8F2C8555
:100A90002E8FF80140815181628173819A01AB01EF
:100AA00089019A0140E050E0BA010D8B1E8B2F8B1B
:100AB000388F498F5A8F6B8F7C8F092F182F2D8974
:100AC0003E894F89588D60E070E080E090E00E94A0
:100AD000BB120E94711020E030E040E055E30E941C
:100AE000E3116B017C01222D332D442D552D662DF4
:100AF000772D8D8D9E8D0E9471109B01AC01C701D9
:100B0000B6010E94350F20E030E040E058E30E943B
:100B1000E31120E030E048EC52E40E949E0F0E9476
:100B20004010F40160837183828393836E960FB6C5
:100B3000F894DEBF0FBECDBFDF91CF911F910F9113
:100B4000FF90EF90DF90CF90BF90AF909F908F90ED
:100B50007F906F905F904F903F902F900895EF920D
:100B6000FF920F931F93CF93DF93CDB7DEB72897F4
:100B70000FB6F894DEBF0FBECDBF8C017B0186DEC1
:100B800091DE69837A838B839C8374DE8BDE6D8335
:100B90007E838F839887A701B801CE0101969FDEDF
:100BA00028960FB6F894DEBF0FBECDBFDF91CF9170
:100BB0001F910F91FF90EF9008950F931F93CF9384
:100BC000DF93CDB7DEB764970FB6F894DEBF0FBEE4
:100BD000CDBF8C01FC0160817181828193810E9473
:100BE0007710698B7A8B8B8B9C8BF8016481758174
:100BF000868197810E94771023E333E948E853E424
:100C00000E94360F6D837E838F8398876D817E81EE
:100C10008F8198852DE637E84FE853E40E94E31171
:100C20002DEC3CEC4CE151E40E949E0F69877A87E1
:100C30008B879C8769897A898B899C8920E030E43D
:100C40004DE754E40E949E0F6D877E878F87988BB7
:100C50006D857E858F8598890E94A31129853A85A7
:100C60004B855C8590580E94E31169837A838B835E
:100C70009C8369817A818B819C8164960FB6F894FC
:100C8000DEBF0FBECDBFDF91CF911F910F910895B1
:100C90001F920F920FB60F9211240BB60F922F9343
:100CA0003F934F935F936F937F938F939F93AF93F4
:100CB000BF93CF93EF93FF93C091C60080917B02C7
:100CC0008E3F70F010927B0210927A02109279029D
:100CD00060E08FE40E94230F60E08AE20E94230F0D
:100CE000C432C1F48091790281115EC01092780201
:100CF00081E080937A0210927B02E0917B02F0E027
:100D0000E458FD4F84E2808380917B028F5F809363
:100D10007B0262C080917A028823B9F0CA3209F05E
:100D200053C047C0CC3229F4809178028F5F809302
:100D30007802E0917B02F0E0E458FD4FC08380919F
:100D40007B028F5F80937B0247C080917A02882369
:100D500009F442C0CA3209F03FC080917902811182
:100D60003BC0E0917B02F0E0E458FD4F8AE28083D3
:100D700080917B028F5F80937B02E0917B02F0E0A9
:100D8000E458FD4F108210927B0281E0809379023B
:100D900010927A0260E08AE00E94230FE1ECF0E01A
:100DA00080818F77808318C080917A02811109C079
:100DB00011C080917A028111D0CF0EC080917A0249
:100DC0000BC080917902FACF80917902882309F4CF
:100DD000A9CFF4CF80917A02FF91EF91CF91BF918B
:100DE000AF919F918F917F916F915F914F913F91C3
:100DF0002F910F900BBE0F900FBE0F901F90189564
:100E0000EF92FF921F93CF93DF931F92CDB7DEB780
:100E10007C01162F60E084E20E94230F19828981F1
:100E2000811770F49981F701E90FF11D60E080816D
:100E30000E94230F99819F5F99839981911790F365
:100E400060E08DE00E94230F60E08AE0FCD70F9005
:100E5000DF91CF911F91FF90EF9008950F931F9313
:100E6000CF93DF9300D01F921F92CDB7DEB78C01D6
:100E700019828981F801E80FF11D80818A3291F091
:100E800099818A81F801E90FF11D908198279A8351
:100E900099819F5F99838981F801E80FF11D808115
:100EA0008A3271F78A811F928F9386E492E09F9332
:100EB0008F93CE0103969F938F930E944E13898147
:100EC0008F5F89838981F801E80FF11D8B81808311
:100ED00089818F5F89838981F801E80FF11D8C81F9
:100EE00080830F900F900F900F900F900F900F90A6
:100EF0000F900F900F900F90DF91CF911F910F9156
:100F00000895CF93DF931F921F92CDB7DEB7AC0148
:100F100088E089831A82898189818B3098F42981BC
:100F20009A81FB01E90FF11D9081FA01E20FF11D99
:100F300090839A819F5F9A8399819F5F998399811A
:100F40009B3068F3CA018ADF0F900F90DF91CF9139
:100F50000895CF93DF93CDB7DEB76C970FB6F894B3
:100F6000DEBF0FBECDBF10927B0210927A021092AC
:100F700079028AE1E0E0F2E0DE01139601900D9241
:100F80008A95E1F740E060E875E280E090E039D7CB
:100F90009A83898389819A81009709F45DC02FEF34
:100FA00083ED90E3215080409040E1F700C00000C5
:100FB0006BE472E0CE010396A4DF6AE1CE010396F2
:100FC0001FDF2FEF82E597E0215080409040E1F74E
:100FD00000C000006FE472E0CE01039692DF6AE188
:100FE000CE0103960DDF2FEF82E597E02150804080
:100FF0009040E1F700C0000063E572E0CE01039687
:1010000080DF6AE1CE010396FBDE2FEF82E597E0F9
:10101000215080409040E1F700C0000067E572E099
:10102000CE0103966EDF6AE1CE010396E9DE2FEF73
:1010300082E597E0215080409040E1F700C0000039
:101040006BE572E0CE0103965CDF6AE1CE010396A8
:10105000D7DE789489819A816C960FB6F894DEBFBA
:101060000FBECDBFDF91CF910895AF92BF92CF92C7
:10107000DF92EF92FF920F931F93CF93DF93CDB741
:10108000DEB728970FB6F894DEBF0FBECDBF6C0158
:101090008B01ADB6BEB6CB0101962DB73EB7281B6E
:1010A000390B0FB6F8943EBF0FBE2DBF8DB79EB75C
:1010B00001967C01AB01B6010E942713F701E00FF6
:1010C000F11F1082C7010E941B1369837A838B83EF
:1010D0009C83C601800F911F0E941B136D837E832A
:1010E0008F8398876D817E818F819885C980DA8012
:1010F000EB80FC8020E030E040E752E41FD7A701FE
:101100009601B4D60FB6F894BEBE0FBEADBE2896FB
:101110000FB6F894DEBF0FBECDBFDF91CF911F9108
:101120000F91FF90EF90DF90CF90BF90AF90089518
:101130000F931F93CF93DF93CDB7DEB7C350D1404A
:101140000FB6F894DEBF0FBECDBF9C018B01CE0160
:101150000196CF5FDE4F99838883C150D14040E034
:1011600051E0B9010E942713CD5FDE4F1882C350B2
:10117000D140CD5FDE4F1882C350D140CD5FDE4FEE
:101180008881C350D1408230C8F46FE572E0CE014F
:101190008F5F9E4F0E943613CD5FDE4F8881C35014
:1011A000D1408F5FCD5FDE4F8883C350D140CD5F8C
:1011B000DE4F8881C350D140823038F3CD5FDE4F9F
:1011C0001882C350D1406FE572E0CE018F5F9E4F11
:1011D0000E943613FC0120812223A1F062E070E01E
:1011E00044DFF80162837383848395836FE572E043
:1011F000CE018F5F9E4F0E943613FC0180818335A4
:10120000C1F40CC0F8011282138214821582168276
:10121000178210861186118210829FC0F801828188
:101220009381A481B581B05882839383A483B583CD
:101230000EC08E3461F0F80112821382148215827E
:1012400016821782108611861182108286C06FE581
:1012500072E0CE018F5F9E4F0E943613FC01208109
:101260002223A1F063E070E000DFF801668377835A
:10127000808791876FE572E0CE018F5F9E4F0E945D
:101280003613FC0180818735C1F40CC0F80112824D
:10129000138214821582168217821086118611829B
:1012A00010825BC0F80186819781A085B185B05816
:1012B00086839783A087B1870EC0853461F0F801DB
:1012C000128213821482158216821782108611866A
:1012D0001182108242C0CD5FDE4F1882C350D140D0
:1012E000CD5FDE4F8881C350D1408330C8F46FE5B5
:1012F00072E0CE018F5F9E4F0E943613CD5FDE4FAE
:101300008881C350D1408F5FCD5FDE4F8883C3504B
:10131000D140CD5FDE4F8881C350D140833038F358
:101320006FE572E0CE018F5F9E4F0E943613FC0185
:101330002081222339F00E941B13A7D6F801718364
:1013400060830BC0F8011282138214821582168208
:1013500017821086118611821082CD5FDE4F0FB684
:10136000F894DEBF0FBECDBFDF91CF911F910F91DB
:1013700008954F925F926F927F928F929F92AF9259
:10138000BF92CF92DF92EF92FF920F931F93CF9372
:10139000DF93CDB7DEB7C251D1400FB6F894DEBFB0
:1013A0000FBECDBF8C0119821A821B821C821D8246
:1013B0001E821F82188619861A86909179029923B7
:1013C00009F4C1C0B8018CE792E0B2DE1092790254
:1013D000D80112964D905D906D907C901597C55FE9
:1013E000DE4F488259826A827B82CB50D140C30152
:1013F000B20146D66B837C838D839E83F801868001
:101400009780A084B184C501B4013AD66F837887F0
:1014100089879A87209178026F81788589859A8556
:10142000CF80D884E984FA844B805C806D807E8094
:10143000C15FDE4F488259826A827B82CF50D140A1
:101440004B805C806D807E801F922F93D801119617
:101450002C9111972F932C912F9349D69B01AC017E
:10146000C501B40102D520E030E44CE156E4ABD72D
:1014700007D699233CF490958095709561957F4FA0
:101480008F4F9F4F9F938F937F936F93FF92EF9216
:10149000DF92CF92C15FDE4F688179818A819B8123
:1014A000CF50D14024D69B01AC01C55FDE4F68818F
:1014B00079818A819B81CB50D140D7D420E030E420
:1014C0004CE156E480D7DCD599233CF49095809587
:1014D000709561957F4F8F4F9F4F9F938F937F9311
:1014E0006F937F926F925F924F9281E692E09F930B
:1014F0008F93CE010B969F938F930E944E138983F7
:101500008A819A8189810FB6F894DEBF0FBECDBF64
:10151000981788F48A81EBE0F0E0EC0FFD1FE80FEC
:10152000F11D60E080818FD48A818F5F8A839A81E8
:101530008981981778F360E08AE085D4E1ECF0E0E7
:10154000808180688083CE5EDE4F0FB6F894DEBF68
:101550000FBECDBFDF91CF911F910F91FF90EF9004
:10156000DF90CF90BF90AF909F908F907F906F90C3
:101570005F904F900895CF93DF93CDB7DEB7A097DC
:101580000FB6F894DEBF0FBECDBF28E0EBE1F2E06E
:10159000DE01119601900D922A95E1F728E0E3E231
:1015A000F2E0DE01199601900D922A95E1F728E00C
:1015B000EBE2F2E0DE01519601900D922A95E1F7FF
:1015C00028E0E3E3F2E0DE01599601900D922A95BE
:1015D000E1F78230910599F01CF4019739F029C0A8
:1015E00083309105A9F00497E1F023C088E0FE0163
:1015F0003196DB0101900D928A95E1F71AC088E0DF
:10160000FE013996DB0101900D928A95E1F711C038
:1016100088E0FE017196DB0101900D928A95E1F759
:1016200008C088E0FE017996DB0101900D928A9551
:10163000E1F7A0960FB6F894DEBF0FBECDBFDF91E5
:10164000CF9108950F931F93CF93DF93FC012081D7
:10165000FA012083623071056CF1FC013196680F4C
:10166000791F21E030E00DE710E2EF019081933126
:1016700041F018F4913199F404C083E8890F823065
:1016800070F4DA01A20FB31F0C93D9011196A40FC5
:10169000B51F2E5F3F4F988191279C9306C0DA01BA
:1016A000A20FB31F9C932F5F3F4F3196E617F707AA
:1016B000E1F602C021E030E0C901DF91CF911F9136
:1016C0000F910895EF92FF920F931F93CF93DF93A3
:1016D000CDB7DEB7C850D2400FB6F894DEBF0FBE0C
:1016E000CDBF7C018B01CA01BE016F5F7D4F43DF1F
:1016F0008EE789831A828BE0800F8B831C821D8288
:10170000DE01AF5FBD4FFE0136969E01225F3F4F67
:101710009D919193E217F307D9F781E08E87A80195
:10172000B701CE010F968AD7A801425F5F4F4430C0
:10173000510574F0FE0134969E01200F311F215F88
:101740003F4F80E09191890FE217F307D9F701C06D
:1017500080E0E1E0F0E0EC0FFD1FE40FF51F809565
:101760008083B801615F7F4FAE014F5F5E4FCE0156
:10177000019668DF18161906ACF4BE016F5F7E4F44
:101780009B01280F391FE8ECF0E04EEC50E080811F
:1017900085FFFDCFDB018D91BD01DA018C936217CE
:1017A0007307A9F7C85FDD4F0FB6F894DEBF0FBE11
:1017B000CDBFDF91CF911F910F91FF90EF900895D2
:1017C0000F931F93CF93DF93CDB7DEB72A970FB652
:1017D000F894DEBF0FBECDBF8C010E94EB02BE01AC
:1017E0006D5F7F4FC801C996BAD98F81F80184AB6C
:1017F0000E94D200F80187ABCE010396DED945D412
:101800007A83698369817A8180E090E06ED4F801FF
:1018100062A773A784A795A7C8014896AADD2A9650
:101820000FB6F894DEBF0FBECDBFDF91CF911F91F1
:101830000F910895EF92FF920F931F93CF93DF9331
:10184000CDB7DEB727970FB6F894DEBF0FBECDBF7A
:101850007C018B011A8219821B821C821D821E82CE
:101860001F828B81FB01E80FF11D82E080838B8159
:101870008F5F8B838B81FB01E80FF11D10828B81C1
:101880008F5F8B83F70162A573A584A595A5FED50F
:10189000FCD37A8369838B81F801E80FF11D89817C
:1018A0009A81918380838B818E5F8B838B8198015A
:1018B000280F311DF701828D938DA48DB58DF9010F
:1018C00080839183A283B3838B818C5F8B838B8195
:1018D0009801280F311DF701868D978DA0A1B1A128
:1018E000F90180839183A283B3838B818C5F8B8387
:1018F0008B819801280F311DF70180819181A28190
:10190000B381F90180839183A283B3838B818C5F40
:101910008B838B819801280F311DF701848195817C
:10192000A681B781F90180839183A283B3838B81E0
:101930008C5F8B838B819801280F311DF701808587
:101940009185A285B385F90180839183A283B383B6
:101950008B818C5F8B838B819801280F311DF70160
:1019600084859585A685B785F90180839183A283B7
:10197000B3838B818C5F8B838B819801280F311D02
:10198000F70180899189A289B389F90180839183C4
:10199000A283B3838B818C5F8B838B819801280F0B
:1019A000311DF70184899589A689B789F90180835A
:1019B0009183A283B3838B818C5F8B83F70163A9AF
:1019C00070E080E090E091D36C837D838E839F8371
:1019D0008B81F801E80FF11D8C819D81AE81BF8163
:1019E00080839183A283B3838B818C5F8B83F70188
:1019F00066A970E080E090E078D36C837D838E836D
:101A00009F838B81F801E80FF11D8C819D81AE8150
:101A1000BF8180839183A283B3838B818C5F8B830F
:101A20001C821D821E821F828B81F801E80FF11D2E
:101A30008C819D81AE81BF8180839183A283B3839A
:101A40008B818C5F8B83F701608D718D80E090E0DE
:101A50004CD31CD51AD37A8369838B81F801E80FA4
:101A6000F11D89819A81918380838B818E5F8B8325
:101A7000F70162A173A184A195A108D506D37A8349
:101A800069838B81F801E80FF11D89819A81918327
:101A900080838B818E5F8B83F70166A177A180A500
:101AA00091A5F4D4F2D27A8369838B81F801E80F8F
:101AB000F11D89819A81918380838B818E5F8B83D5
:101AC0009B81F70186A9F801E90FF11D8083279614
:101AD0000FB6F894DEBF0FBECDBFDF91CF911F913F
:101AE0000F91FF90EF9008950F931F93CF93DF9383
:101AF0001F92CDB7DEB78C012FEF80E792E0215027
:101B000080409040E1F700C0000041E060E076E9ED
:101B100080E090E076D11DDA0E94A703C801C99643
:101B20000E9430040E94D200F80187AB12A613A6CF
:101B300014A615A616A617A610AA11AA118E108E05
:101B4000128E138E148E158E168E178E10A211A261
:101B500016A217A210A611A616AAC80131DE198274
:101B600089818630F8F4C8012BDE20E030E040ECBB
:101B700050E4F80162A573A584A595A5DFD19B016A
:101B8000AC01F80166A577A580A991A96FD1F801EC
:101B900066A777A780AB91AB89818F5F89838981A5
:101BA000863008F3F80186A597A5A0A9B1A982A35C
:101BB00093A3A4A3B5A30E94D40082E0F80185AB4F
:101BC00013AA4BD078940F90DF91CF911F910F9172
:101BD00008950F931F93CF93DF93CDB7DEB7E797A9
:101BE0000FB6F894DEBF0FBECDBF8C01E9DDF80162
:101BF00022A533A544A555A5B801C80182960E9427
:101C0000ED0033D0882361F0BE016F5F7F4FC801C4
:101C100011DE44E050E067E370E0CE01019652DD52
:101C2000E7960FB6F894DEBF0FBECDBFDF91CF9120
:101C30001F910F910895CF93DF93CDB7DEB7C957AA
:101C4000D1090FB6F894DEBF0FBECDBFCE0101960D
:101C50004BDFCE010196BDDFFCCF83E080932101F5
:101C600010922501109224010895CF93DF931F92C3
:101C70001F92CDB7DEB780912401909125019A8300
:101C8000898369817A8180E090E02FD220E030E57D
:101C900043E456E44FD3882334F010922501109288
:101CA000240181E001C080E00F900F90DF91CF917F
:101CB00008959CB5937F892B8CBD089584B186606F
:101CC00084B9289A8CB582658CBD0895CF93C82FAE
:101CD000F5DFCEBD0DB407FEFDCFCF9108951EBC3C
:101CE0000DB407FEFDCF8EB508951F93CF93DF93FC
:101CF00000D01F921F92CDB7DEB7182F19821A821B
:101D00001B821C821D828D818D818117F8F449818F
:101D10005A816B817C81762F652F542F442749830C
:101D20005A836B837C83DBDF49815A816B817C81A1
:101D3000480F511D611D711D49835A836B837C833C
:101D40009D819F5F9D838D81811708F369817A81D1
:101D50008B819C810F900F900F900F900F90DF91CF
:101D6000CF911F9108951F93CF93DF931F921F92DE
:101D7000CDB7DEB7142FDC01CB01880F991FAA1F46
:101D8000BB1F880F991FAA1FBB1F9C01AD01220F0B
:101D9000331F441F551F220F331F441F551F60E080
:101DA00072E18AE790E0BBD3215031093A8329835D
:101DB00089819A8181159041E0F489819A81009707
:101DC000D1F0112359F089819A819093CD008981B6
:101DD0009A818093CC0089819A810DC089819A81F2
:101DE0009093C50089819A818093C40089819A81EA
:101DF00002C080E090E00F900F90DF91CF911F9193
:101E000008951F93CF93DF931F921F92CDB7DEB734
:101E1000142FA9DF9A83898389819A81009769F0B9
:101E2000112331F088E18093C90089819A8105C02E
:101E300088E98093C10089819A810F900F90DF918A
:101E4000CF911F910895662341F0E8ECF0E0908176
:101E500095FFFDCF8093CE000895E0ECF0E09081F7
:101E600095FFFDCF8093C60008955058BB27AA2741
:101E70000ED026C217D230F01CD220F031F49F3F92
:101E800011F41EF4D7C10EF4E095E7FBCDC1E92FA4
:101E900028D280F3BA17620773078407950718F0F2
:101EA00071F49EF540C20EF4E0950B2EBA2FA02DD2
:101EB0000B01B90190010C01CA01A0011124FF27F7
:101EC000591B99F0593F50F4503E68F11A16F040F2
:101ED000A22F232F342F4427585FF3CF46953795F1
:101EE0002795A795F0405395C9F77EF41F16BA0BB6
:101EF000620B730B840BBAF09150A1F0FF0FBB1F64
:101F0000661F771F881FC2F70EC0BA0F621F731FAC
:101F1000841F48F4879577956795B795F7959E3F09
:101F200008F0B3CF9395880F08F09927EE0F979597
:101F30008795089555D108F481E008950CD0C0C16B
:101F4000B8D140F0AFD130F021F45F3F19F06CC14F
:101F50005111EAC16FC1C5D198F39923C9F3552333
:101F6000B1F3951B550BBB27AA276217730784078C
:101F700038F09F5F5F4F220F331F441FAA1FA9F342
:101F800033D00E2E3AF0E0E830D091505040E69534
:101F9000001CCAF729D0FE2F27D0660F771F881F95
:101FA000BB1F261737074807AB07B0E809F0BB0B84
:101FB000802DBF01FF2793585F4F2AF09E3F5105A8
:101FC00068F032C1B1C15F3FECF3983EDCF3869517
:101FD00077956795B795F7959F5FC9F7880F911D1E
:101FE0009695879597F90895E1E0660F771F881F0A
:101FF000BB1F621773078407BA0720F0621B730BBD
:10200000840BBA0BEE1F88F7E0950895BEE304D069
:1020100008F490E80895BFE322273327A90169D186
:1020200058F19F5740F1B91738F1BFE3B91B992711
:10203000B8503AF4660F771F881F991FB395D2F3F3
:1020400016C0B8504AF0232F342F452F562F672F34
:10205000782F8827B850BAF7B85F49F086957795FA
:1020600067955795479537952795BA95B9F70EF423
:10207000E4D088940895889460E070E0CB010895DE
:1020800004D06894B11150C1089533D188F09F579E
:1020900090F0B92F9927B751A0F0D1F0660F771FB4
:1020A000881F991F1AF0BA95C9F712C0B13081F094
:1020B0003AD1B1E0089537C1672F782F8827B85FEC
:1020C00039F0B93FCCF3869577956795B395D9F7F5
:1020D0003EF490958095709561957F4F8F4F9F4FFF
:1020E000089597FB0EF4A9D03EC0E89409C097FB71
:1020F0003EF490958095709561957F4F8F4F9F4FDF
:102100009923A9F0F92F96E9BB279395F695879522
:1021100077956795B795F111F8CFFAF4BB0F11F4E5
:1021200060FF1BC06F5F7F4F8F4F9F4F16C088238C
:1021300011F096E911C0772321F09EE8872F762FC2
:1021400005C0662371F096E8862F70E060E02AF003
:102150009A95660F771F881FDAF7880F96958795EF
:1021600097F90895E894F92F96EBFF2381F0121662
:1021700013061406440B9395F69587957795679506
:1021800057954040FF23B9F71BC09927089588232E
:1021900051F49850D2F7872B762F652F542F432F69
:1021A000322F20E0B1F3121613061406440B8823D5
:1021B0003AF09A95440F551F661F771F881FCAF77C
:1021C00055234AF4440F551F11F460FF04C06F5F9C
:1021D0007F4F8F4F9F4F880F9695879597F908955A
:1021E000990F0008550FAA0BE0E8FEEF1616170628
:1021F000E807F907C0F012161306E407F50798F090
:10220000621B730B840B950B39F40A2661F0232BA8
:10221000242B252B21F408950A2609F4A140A69524
:102220008FEF811D811D089597F99F6780E870E009
:1022300060E008959FEF80EC0895909580957095EB
:10224000609550954095309521953F4F4F4F5F4F8A
:102250006F4F7F4F8F4F9F4F0895DF93CF931F9303
:102260000F93FF92EF92DF927B018C01689405C07F
:10227000DA2EEF01B4D0FE01E894A59125913591B5
:1022800045915591AEF3EF0102DEFE019701A801E1
:10229000DA9479F7DF90EF90FF900F911F91CF9133
:1022A000DF91089500240A941616170618060906E9
:1022B000089500240A9412161306140605060895BC
:1022C000092E0394000C11F4882352F0BB0F40F444
:1022D000BF2B11F460FF04C06F5F7F4F8F4F9F4F84
:1022E000089557FD9058440F551F59F05F3F71F006
:1022F0004795880F97FB991F61F09F3F79F087956D
:102300000895121613061406551FF2CF4695F1DFF5
:1023100008C0161617061806991FF1CF8695710585
:10232000610508940895E894BB2766277727CB01B9
:1023300097F9089555DF08F48FEF08950EF0E1C086
:1023400079CF689471CFD5DFC8F39923D1F3C6F361
:10235000DF93CF931F930F93FF92C92FDD2788231D
:102360002AF02197660F771F881FDAF720E030E008
:1023700040E85FEB9FE3883920F0803E30F0219603
:102380008F7774DDECECF0E003C070DDE9EFF0E096
:1023900064DF8B01BE01EC01FB2E6F57710975954F
:1023A000771F880B990BA3DE28E132E741E35FE357
:1023B00016D0AF2D9801AE01FF900F911F91CF91D4
:1023C000DF9165DD7DCF0BD07BCF6CDF28F071DF37
:1023D00018F0952309F028CF2DCF1124A5CF81DF48
:1023E000A0F3959FD1F3950F50E0551F629FF00128
:1023F000729FBB27F00DB11D639FAA27F00DB11D81
:10240000AA1F649F6627B00DA11D661F829F222709
:10241000B00DA11D621F739FB00DA11D621F839F90
:10242000A00D611D221F749F3327A00D611D231F66
:10243000849F600D211D822F762F6A2F11249F57B4
:1024400050408AF0E1F088234AF0EE0FFF1FBB1FD7
:10245000661F771F881F91505040A9F79E3F510576
:1024600070F0E2CE61CF5F3FECF3983EDCF38695EF
:1024700077956795B795F795E7959F5FC1F7FE2B21
:10248000880F911D9695879597F9089532DFE0F0B2
:102490009E37D8F09639B8F49E3848F4672F782FD5
:1024A0008827985FF9CF86957795679593959539A5
:1024B000D0F3B62FB1706B0F711D811D20F487957D
:1024C00077956795939502C01CC02ECF882371F431
:1024D000772321F09850872B762F07C0662311F4BD
:1024E00099270DC09051862B70E060E02AF09A95F4
:1024F000660F771F881FDAF7880F9695879597F9EB
:1025000008959F3F31F0915020F487957795679516
:10251000B795880F911D9695879597F90895A1E233
:102520001A2EAA1BBB1BFD010DC0AA1FBB1FEE1F4D
:10253000FF1FA217B307E407F50720F0A21BB30B98
:10254000E40BF50B661F771F881F991F1A9469F714
:1025500060957095809590959B01AC01BD01CF0170
:1025600008955AD0A59F900DB49F900DA49F800D03
:10257000911D11240895DF93CF931F930F939A9D7C
:10258000F02D219FF00D8B9DF00D8A9DE02DF10D1A
:10259000039FF00D029FE00DF11D4E9DE00DF11D1A
:1025A0005E9DF00D4F9DF00D7F936F93BF92AF92A4
:1025B0005F934F93D50130D08B01AC01D7012CD064
:1025C000EB01E80FF91FD6011FD02F913F91D601E3
:1025D00023D0C60FD71FE81FF91FAF91BF9114D0AA
:1025E0002F913F9119D0C60FD71FE81FF91FD601B1
:1025F00013D0E60FF71F9801BE01CF0111240F91F0
:102600001F91CF91DF91089507D0460F571FC81F24
:10261000D91F08F431960895A29FB001B39FC0015D
:10262000A39F700D811D1124911DB29F700D811DFE
:102630001124911D0895662777274DC2FB01DC0107
:1026400002C001900D9241505040D8F70895FB010F
:10265000DC014150504048F001900D920020C9F734
:1026600001C01D9241505040E0F70895FC01A08147
:10267000B181AD01109681F03D91FB0101900316EF
:102680000110E1F7C9F7002011F4D00102C01E9239
:102690001196FC01A083B183CA0108950F931F9383
:1026A000CF93DF93CDB7DEB72E970FB6F894DEBF8A
:1026B0000FBECDBF0E891F8986E08C831A830983E4
:1026C0008FEF9FE79E838D83AE01465E5F4F688DDF
:1026D000798DCE01019611D02F813885F801E20F56
:1026E000F31F10822E960FB6F894DEBF0FBECDBF3B
:1026F000DF91CF911F910F9108952F923F924F92AA
:102700005F926F927F928F929F92AF92BF92CF9281
:10271000DF92EF92FF920F931F93CF93DF93CDB78A
:10272000DEB72C970FB6F894DEBF0FBECDBF7C018D
:102730006B018A01FC0117821682838181FFB0C17F
:10274000CE0101964C01F7019381F60193FD85912D
:1027500093FF81916F01882309F49EC1853239F47A
:1027600093FD859193FF81916F01853221F4B7012B
:1027700090E04DD3E8CF512C312C20E02032A0F452
:102780008B3269F030F4803259F0833269F4206181
:102790002CC08D3239F0803339F4216026C022609C
:1027A000246023C0286021C027FD27C030ED380FEA
:1027B0003A3078F426FF06C0FAE05F9E300D11240F
:1027C000532E13C08AE0389E300D1124332E206220
:1027D0000CC08E3221F426FD5FC1206406C08C3609
:1027E00011F4206802C0883641F4F60193FD85910A
:1027F00093FF81916F018111C1CF982F9F7D9554D7
:10280000933028F40C5F1F4FFFE3F9830DC083362C
:1028100031F0833771F0833509F057C021C0F801DA
:10282000808189830E5F1F4F44244394512C5401AF
:1028300014C03801F2E06F0E711CF801A080B18065
:1028400026FF03C0652D70E002C06FEF7FEFC5016A
:102850002C87D2D22C0183012C852F77222E16C0F3
:102860003801F2E06F0E711CF801A080B18026FFE4
:1028700003C0652D70E002C06FEF7FEFC5012C87AC
:10288000B0D22C012C852068222E830123FC19C094
:10289000832D90E048165906A0F4B70180E290E03D
:1028A000B6D23A94F5CFF50127FC859127FE8191A8
:1028B0005F01B70190E0ABD231103A94F1E04F1ACA
:1028C00051084114510479F7DEC0843611F089367D
:1028D00031F5F80127FF07C0608171818281938102
:1028E0000C5F1F4F08C060817181072E000C880BA0
:1028F000990B0E5F1F4F2F76722E97FF09C0909590
:102900008095709561957F4F8F4F9F4F2068722EF5
:102910002AE030E0A401B3D2A82EA81843C085371E
:1029200029F42F7EB22E2AE030E025C0F22FF97F65
:10293000BF2E8F36C1F018F4883579F0ADC08037DE
:1029400019F0883721F0A8C02F2F2061B22EB4FED5
:102950000DC08B2D8460B82E09C024FF0AC09F2FA4
:102960009660B92E06C028E030E005C020E130E0D6
:1029700002C020E132E0F801B7FE07C0608171813A
:10298000828193810C5F1F4F06C06081718180E05E
:1029900090E00E5F1F4FA40172D2A82EA818FB2D45
:1029A000FF777F2E76FE0BC0372D3E7FA51450F4A7
:1029B00074FE0AC072FC08C0372D3E7E05C0BA2CDA
:1029C000372D03C0BA2C01C0B52C34FF0DC0FE0159
:1029D000EA0DF11D8081803311F4397E09C032FF88
:1029E00006C0B394B39404C0832F867809F0B394DF
:1029F00033FD12C030FF06C05A2CB31418F4530C28
:102A00005B18B32CB31460F4B70180E290E03C870C
:102A1000FED1B3943C85F6CFB31410F43B1801C03B
:102A2000312C34FF11C0B70180E390E03C87EFD137
:102A30003C8532FF16C031FD03C088E790E002C03C
:102A400088E590E0B7010CC0832F867851F031FF04
:102A500002C08BE201C080E237FD8DE2B70190E059
:102A6000D6D1A51430F4B70180E390E0D0D15A94C8
:102A7000F8CFAA94F401EA0DF11D8081B70190E02E
:102A8000C6D1A110F6CF332009F45DCEB70180E2A4
:102A900090E0BDD13A94F7CFF7018681978102C0CB
:102AA0008FEF9FEF2C960FB6F894DEBF0FBECDBF11
:102AB000DF91CF911F910F91FF90EF90DF90CF901A
:102AC000BF90AF909F908F907F906F905F904F904E
:102AD0003F902F9008956F927F928F929F92AF9226
:102AE000BF92CF92DF92EF92FF920F931F93CF93FB
:102AF000DF93EC017B016115710519F0DB018D930A
:102B00009C938E010F5F1F4F7880872D90E049D1F5
:102B1000892B11F0E801F5CFBDE27B1205C00F5FF4
:102B20001F4F7980C1E008C0EBE27E1204C08E0125
:102B30000E5F1F4F7980C0E06801F1E0CF1AD10825
:102B400043E050E06EE271E0C60133D1892BE9F435
:102B5000680122E0C20ED11C45E050E069E271E05C
:102B6000C60127D1892B21F4680187E0C80ED11C4A
:102B7000E114F10419F0D701CD92DC92C111F9C032
:102B800060E070E080E89FE7FDC043E050E066E26F
:102B900071E0C6010ED1892B51F4E114F10409F45E
:102BA000EDC00E5F1F4FF70111830083E7C068017E
:102BB00060E070E0CB0100E010E0F601D0EDD70D51
:102BC000DA3050F52C2F2260622E2C2F2870C2FF95
:102BD00005C0211127C00F5F1F4F24C0222311F011
:102BE00001501109A5E0B0E09B01AC01BADC4B013A
:102BF0005C01880C991CAA1CBB1CC501B4016D0F9B
:102C0000711D811D911D6839A9E97A078A07A9E11B
:102C10009A0740F0C66005C0DE3F51F4C3FD44C0D2
:102C2000C8606C2EBFEFCB1ADB0A7080C62DC5CFF3
:102C30002D2F2F7D2531C1F540814D3211F4C0611A
:102C400006C04B3221F0319621E030E006C03296CA
:102C5000D60111964C9122E030E0A0EDA40FAA30ED
:102C600018F0E21BF30B20C040E050E04038BCE01D
:102C70005B075CF49A01220F331F220F331F420FB0
:102C8000531F440F551F4A0F511D3196DF011197F5
:102C90002C91A0EDA20FAA3048F3C4FF03C05195B8
:102CA00041955109040F151FC1FF07C0E114F1043C
:102CB00021F03197D701ED93FC9317DAC370C3303D
:102CC00019F06B017C0106C06B017C01F7FAF094EE
:102CD000F7F8F09420E030E0A901C701B6012AD945
:102CE000882309F443C017FF06C011950195110907
:102CF000C5E4D1E002C0CDE5D1E05E01B8E1AB1A98
:102D0000B1084601BE2DAF2D90E2E92EF12C0E1533
:102D10001F057CF0FE012591359145915491B40138
:102D20008B2F9A2F50DB4B01B82FA92F0E191F099B
:102D3000EECF2497F594E794CA15DB0541F76401BB
:102D4000EB2EFA2E8E2D880F8F2D881F8F3F41F08E
:102D500020E030E0A901C701B601ECD8811106C01E
:102D600082E290E090937D0380937C03C701B601DB
:102D700009C060E070E080E89FEF04C060E070E0B0
:102D800080EC9FE7DF91CF911F910F91FF90EF9023
:102D9000DF90CF90BF90AF909F908F907F906F907B
:102DA00008959111CAC0803219F089508550D0F72A
:102DB0000895FB01DC014150504088F08D91813431
:102DC0001CF08B350CF4805E659161341CF06B3522
:102DD0000CF4605E861B611171F3990B0895881BDA
:102DE000FCCFFC010590615070400110D8F7809530
:102DF00090958E0F9F1F0895FC01615070400190C7
:102E00000110D8F7809590958E0F9F1F08950F930E
:102E10001F93CF93DF93FB01238121FD03C08FEF2D
:102E20009FEF28C022FF16C046815781248135813B
:102E30004217530744F4A081B1819D012F5F3F4F9A
:102E4000318320838C93268137812F5F3F4F3783D7
:102E5000268310C0EB01092F182F0084F185E02D87
:102E60001995892BE1F68E819F8101969F838E8330
:102E7000812F902FDF91CF911F910F910895FA012B
:102E8000AA27283051F1203181F1E8946F936E7FA9
:102E90006E5F7F4F8F4F9F4FAF4FB1E03ED0B4E09A
:102EA0003CD0670F781F891F9A1FA11D680F791FDB
:102EB0008A1F911DA11D6A0F711D811D911DA11DEC
:102EC00020D009F468943F912AE0269F11243019FC
:102ED000305D3193DEF6CF010895462F4770405D97
:102EE0004193B3E00FD0C9F7F6CF462F4F70405D46
:102EF0004A3318F0495D31FD4052419302D0A9F7A1
:102F0000EACFB4E0A6959795879577956795BA959A
:102F1000C9F700976105710508959B01AC010A2E60
:102F200006945795479537952795BA95C9F7620F37
:102F3000731F841F951FA01D089599278827089542
:042F4000F894FFCF33
:102F4400505542582C34302C5F5F5F2C302C302C81
:102F5400302C302C302C302A5F5F000013A200414B
:102F64005AD20B0013A200412647610013A200416C
:102F740025D1F60013A20041264758505542582C3B
:102F840030302A3333002530325800474C4C004748
:102F940053410047535600524D4300565447002CAA
:102FA40000256C642E256C6420256C642E256C64CD
:082FB4002025752025752A0077
:00000001FF
