S010000048415254436F64652E737265636A
S113000065C0000082C0000080C000007EC0000007
S11300107CC000007AC0000078C0000076C00000F8
S113002074C0000072C0000070C000006EC0000008
S11300306CC000006AC0000068C0000066C0000018
S113004064C0000062C0000060C000005EC0000028
S11300505CC000005AC0000058C0000056C0000038
S113006054C0000054C0000050C000004EC0000046
S11300704CC000004AC0000048C0000046C0000058
S113008044C0000042C0000040C000003EC0000068
S11300908DC000003AC0000038C0000036C0000027
S11300A034C0000032C0000030C000002EC0000088
S11300B02CC000002AC0000028C0000026C0000098
S11300C024C0000022C0000020C0000011241FBE74
S11300D0CFEFD1E2DEBFCDBF00E00CBF12E0A0E065
S11300E0B2E0E4E6F2E000E00BBF02C007900D923C
S11300F0A030B107D9F724E0A0E0B2E001C01D921E
S1130100A530B207E1F702D0ABC07ACFFFCF1F9280
S11301100F920FB60F9211240BB60F928F939F93E9
S1130120EF93FF938091C600843269F480910003B9
S1130130811131C081E08093010394E29093000225
S11301408093020328C090910103992321F18A32FC
S113015079F09091000391111EC090910203E92F50
S1130160F0E0E050FE4F80839F5F9093020313C042
S11301708091000381110FC0E0910203F0E0E05090
S1130180FE4F8AE280831092020381E08093000391
S113019010920103F894FF91EF919F918F910F902A
S11301A00BBE0F900FBE0F901F9018951F920F92C9
S11301B00FB60F9211240BB60F922F933F934F93C8
S11301C05F938F939F93AF93BF93EF93FF93CF93DB
S11301D0DF931F921F92CDB7DEB7F89410920304F9
S11301E01A82198289819A81843F914008F5A8EC8A
S11301F0B0E02EEC30E08C91882384F4E091030489
S113020081E08E0F809303044E2F50E0F90180812A
S1130210FA01ED5FFC4F80831A82198289819A81E9
S113022001969A83898389819A81843F914018F346
S113023081E0809304040F900F90DF91CF91FF91A0
S1130240EF91BF91AF919F918F915F914F913F91AA
S11302502F910F900BBE0F900FBE0F901F9018950B
S1070260F894FFCF3C
S9030000FC
