S010000048415254436F64652E737265636A
S113000065C0000082C0000080C000007EC0000007
S11300107CC000007AC0000078C0000076C00000F8
S113002074C0000072C0000070C000006EC0000008
S11300306CC000006AC0000068C0000066C0000018
S113004064C0000062C0000060C000005EC0000028
S11300505CC000005AC0000058C0000056C0000038
S113006054C0000052C0000050C000004EC0000048
S11300704CC000004AC0000048C0000046C0000058
S113008044C0000042C0000040C000003EC0000068
S113009069C100003AC0000038C0000036C000004A
S11300A034C0000032C0000030C000002EC0000088
S11300B02CC000002AC0000028C0000026C0000098
S11300C024C0000022C0000020C0000011241FBE74
S11300D0CFEFD1E2DEBFCDBF00E00CBF12E0A0E065
S11300E0B2E0EEEEFAE000E00BBF02C007900D9222
S11300F0A234B107D9F723E0A2E4B2E001C01D9213
S1130100A434B207E1F702D0F0C47ACFA6D0FFCF6F
S1130110EF92FF921F93CF93DF931F92CDB7DEB779
S11301207C01162F60E084E2E3D119828981811772
S113013068F49981F701E90FF11D60E08081D8D15D
S113014099819F5F99839981911798F360E08DE07D
S1130150CFD160E08AE0CCD10F90DF91CF911F9195
S1130160FF90EF9008950F931F93CF93DF9300D0E8
S11301701F921F92CDB7DEB78C0119828981F801D5
S1130180E80FF11D80818A3291F099818A81F8010A
S1130190E90FF11D908198279A8399819F5F998334
S11301A08981F801E80FF11D80818A3271F78A8113
S11301B01F928F938BE192E09F938F93CE010396CE
S11301C09F938F93C9D189818F5F89838981F80136
S11301D0E80FF11D8B81808389818F5F89838981F9
S11301E0F801E80FF11D8C8180830F900F900F9020
S11301F00F900F900F900F900F900F900F900F9003
S1130200DF91CF911F910F910895CF93DF931F92A8
S11302101F92CDB7DEB7AC0188E089831A82898149
S113022089818B3098F429819A81FB01E90FF11DB2
S11302309081FA01E20FF11D90839A819F5F9A8366
S113024099819F5F998399819B3068F3CA018BDF01
S11302500F900F90DF91CF910895CF93DF93CDB797
S1130260DEB76C970FB6F894DEBF0FBECDBF8AE140
S1130270E0E0F2E0DE01139601900D928A95E1F739
S113028040E060E875E280E090E010D19A838983D1
S113029089819A81009709F45CC02FEF83ED90E384
S11302A0215080409040E1F700C0000060E272E01D
S11302B0CE010396AADF6AE1CE01039629DF2FEF70
S11302C082E597E0215080409040E1F700C00000B3
S11302D064E272E0CE01039698DF6AE1CE010396F0
S11302E017DF2FEF82E597E0215080409040E1F73F
S11302F000C0000068E272E0CE01039686DF6AE186
S1130300CE01039605DF2FEF82E597E02150804070
S11303109040E1F700C000006CE272E0CE01039669
S113032074DF6AE1CE010396F3DE2FEF82E597E0F6
S1130330215080409040E1F700C0000060E372E08B
S1130340CE01039662DF6AE1CE010396E1DE898184
S11303509A816C960FB6F894DEBF0FBECDBFDF91C5
S1130360CF9108951F920F920FB60F9211240BB6DE
S11303700F922F933F934F935F938F939F93AF93DA
S1130380BF93EF93FF93CF93DF931F921F92CDB749
S1130390DEB7F894109242031A82198289819A81F5
S11303A0843F914008F5A8ECB0E02EEC30E08C914D
S11303B0882384F4E091420381E08E0F809342030A
S11303C04E2F50E0F9018081FA01EE5BFD4F8083EE
S11303D01A82198289819A8101969A8389838981F3
S11303E09A81843F914018F381E0809343030F90F6
S11303F00F90DF91CF91FF91EF91BF91AF919F91BA
S11304008F915F914F913F912F910F900BBE0F9061
S11304100FBE0F901F9018951F93CF93DF931F92D9
S11304201F92CDB7DEB7142FDC01CB01880F991FC3
S1130430AA1FBB1F880F991FAA1FBB1F9C01AD01D8
S1130440220F331F441F551F220F331F441F551FF4
S113045060E072E18AE790E05DD0215031093A838F
S1130460298389819A8181159041C0F489819A8177
S11304700097B1F0112349F089819A819093CD00BE
S11304808093CC0089819A810BC089819A81909351
S1130490C5008093C40089819A8102C080E090E005
S11304A00F900F90DF91CF911F9108951F93CF93D9
S11304B0DF931F921F92CDB7DEB7142FADDF9A835F
S11304C0898389819A81009769F0112331F088E941
S11304D08093C90089819A8105C088E18093C10015
S11304E089819A810F900F90DF91CF911F91089588
S11304F0662341F0E8ECF0E0908195FFFDCF809316
S1130500CE000895E0ECF0E0908195FFFDCF80935C
S1130510C6000895A1E21A2EAA1BBB1BFD010DC043
S1130520AA1FBB1FEE1FFF1FA217B307E407F5079F
S113053020F0A21BB30BE40BF50B661F771F881F7B
S1130540991F1A9469F760957095809590959B0111
S1130550AC01BD01CF0108950F931F93CF93DF9397
S1130560CDB7DEB72E970FB6F894DEBF0FBECDBF62
S11305700E891F8986E08C831A8309838FEF9FE796
S11305809E838D83AE01465E5F4F688D798DCE016B
S1130590019611D02F813885F801E20FF31F1082E4
S11305A02E960FB6F894DEBF0FBECDBFDF91CF916C
S11305B01F910F9108952F923F924F925F926F92E5
S11305C07F928F929F92AF92BF92CF92DF92EF92DF
S11305D0FF920F931F93CF93DF93CDB7DEB72C9782
S11305E00FB6F894DEBF0FBECDBF7C016B018A014C
S11305F0FC0117821682838181FFB0C1CE0101966E
S11306004C01F7019381F60193FD859193FF81914C
S11306106F01882309F49EC1853239F493FD8591D5
S113062093FF81916F01853221F4B70190E0C7D126
S1130630E8CF512C312C20E02032A0F48B3269F029
S113064030F4803259F0833269F420612CC08D3249
S113065039F0803339F4216026C02260246023C03D
S1130660286021C027FD27C030ED380F3A3078F4D8
S113067026FF06C0FAE05F9E300D1124532E13C0EE
S11306808AE0389E300D1124332E20620CC08E3245
S113069021F426FD5FC1206406C08C3611F4206865
S11306A002C0883641F4F60193FD859193FF819150
S11306B06F018111C1CF982F9F7D9554933028F4F9
S11306C00C5F1F4FFFE3F9830DC0833631F083378E
S11306D071F0833509F057C021C0F8018081898306
S11306E00E5F1F4F44244394512C540114C038010D
S11306F0F2E06F0E711CF801A080B18026FF03C0E8
S1130700652D70E002C06FEF7FEFC5012C874CD1DF
S11307102C0183012C852F77222E16C03801F2E09C
S11307206F0E711CF801A080B18026FF03C0652DF7
S113073070E002C06FEF7FEFC5012C872AD12C0136
S11307402C852068222E830123FC19C0832D90E080
S113075048165906A0F4B70180E290E030D13A94EB
S1130760F5CFF50127FC859127FE81915F01B70143
S113077090E025D131103A94F1E04F1A5108411418
S1130780510479F7DEC0843611F0893631F5F80169
S113079027FF07C060817181828193810C5F1F4FA5
S11307A008C060817181072E000C880B990B0E5FC5
S11307B01F4F2F76722E97FF09C0909580957095E4
S11307C061957F4F8F4F9F4F2068722E2AE030E053
S11307D0A4012DD1A82EA81843C0853729F42F7E53
S11307E0B22E2AE030E025C0F22FF97FBF2E8F36DB
S11307F0C1F018F4883579F0ADC0803719F0883726
S113080021F0A8C02F2F2061B22EB4FE0DC08B2D75
S11308108460B82E09C024FF0AC09F2F9660B92EA9
S113082006C028E030E005C020E130E002C020E14D
S113083032E0F801B7FE07C0608171818281938143
S11308400C5F1F4F06C06081718180E090E00E5FF5
S11308501F4FA401ECD0A82EA818FB2DFF777F2EE4
S113086076FE0BC0372D3E7FA51450F474FE0AC0EB
S113087072FC08C0372D3E7E05C0BA2C372D03C04C
S1130880BA2C01C0B52C34FF0DC0FE01EA0DF11DD8
S11308908081803311F4397E09C032FF06C0B394DD
S11308A0B39404C0832F867809F0B39433FD12C047
S11308B030FF06C05A2CB31418F4530C5B18B32C35
S11308C0B31460F4B70180E290E03C8778D0B3942D
S11308D03C85F6CFB31410F43B1801C0312C34FF1F
S11308E011C0B70180E390E03C8769D03C8532FFBA
S11308F016C031FD03C088E790E002C088E590E0AF
S1130900B7010CC0832F867851F031FF02C08BE20F
S113091001C080E237FD8DE2B70190E050D0A5140C
S113092030F4B70180E390E04AD05A94F8CFAA9407
S1130930F401EA0DF11D8081B70190E040D0A110CF
S1130940F6CF332009F45DCEB70180E290E037D0D2
S11309503A94F7CFF7018681978102C08FEF9FEF1A
S11309602C960FB6F894DEBF0FBECDBFDF91CF91AA
S11309701F910F91FF90EF90DF90CF90BF90AF90B9
S11309809F908F907F906F905F904F903F902F90AB
S11309900895FC010590615070400110D8F78095CE
S11309A090958E0F9F1F0895FC0161507040019037
S11309B00110D8F7809590958E0F9F1F08950F937F
S11309C01F93CF93DF93FB01238121FD03C08FEF9E
S11309D09FEF28C022FF16C04681578124813581AC
S11309E04217530744F4A081B1819D012F5F3F4F0B
S11309F0318320838C93268137812F5F3F4F378348
S1130A00268310C0EB01092F182F0084F185E02DF7
S1130A101995892BE1F68E819F8101969F838E83A0
S1130A20812F902FDF91CF911F910F910895FA019B
S1130A30AA27283051F1203181F1E8946F936E7F19
S1130A406E5F7F4F8F4F9F4FAF4FB1E03ED0B4E00A
S1130A503CD0670F781F891F9A1FA11D680F791F4B
S1130A608A1F911DA11D6A0F711D811D911DA11D5C
S1130A7020D009F468943F912AE0269F112430196C
S1130A80305D3193DEF6CF010895462F4770405D07
S1130A904193B3E00FD0C9F7F6CF462F4F70405DB6
S1130AA04A3318F0495D31FD4052419302D0A9F711
S1130AB0EACFB4E0A6959795879577956795BA950B
S1130AC0C9F700976105710508959B01AC010A2ED1
S1130AD006945795479537952795BA95C9F7620FA8
S1110AE0731F841F951FA01D0895F894FFCF67
S1130AEE505542582C34302C5F5F5F2C302C302CF8
S1130AFE302C302C302C302A5F5F002530325800D9
S1130B0E474C4C004753410047535600524D430047
S1130B1E56544700505542582C30302A3333002C4B
S1050B2E0000C1
S9030000FC
