:1000000063C000007FC000007DC000007BC0000016
:1000100079C0000077C0000075C0000073C0000008
:1000200071C000006FC000006DC000006BC0000018
:1000300069C0000067C0000065C0000063C0000028
:1000400061C000005FC0000073C000005BC0000022
:1000500059C0000057C0000055C0000053C0000048
:1000600051C000004FC000004DC000004BC0000058
:1000700049C0000047C0000045C0000043C0000068
:1000800041C000003FC000003DC000004E414E494D
:100090004E495459494E46CDCCCC3D0AD7233C1746
:1000A000B7D13877CC2B329595E6241FB14F0A0093
:1000B0000020410000C84200401C4620BCBE4CCA83
:1000C0001B0E5AAEC59D740011241FBECFEFD0E1A8
:1000D000DEBFCDBF11E0A0E0B1E0E2E7FCE100E06F
:1000E0000BBF02C007900D92A236B107D9F722E0EC
:1000F000A2E6B1E001C01D92A137B207E1F716D028
:100100000C94370E7DCFFC010FB6F89460916B0212
:1001100070916C0280916D0290916E020FBE3097CB
:1001200021F0608371838283938308958FD4FFCFFE
:100130001F920F920FB60F9211240BB60F922F93AE
:100140003F934F935F936F937F938F939F93AF935F
:10015000BF93EF93FF939CB1C39828B381E08227AC
:1001600088BB809166018E3F38F0C298109266017C
:1001700010926501109264019432D9F48091640167
:1001800081117DC0C19AC398C2981092630181E029
:100190008093650110926601E0916601F0E0E959F3
:1001A000FE4F84E28083809166018F5F80936601B9
:1001B0007EC0809165018823C9F09A3209F06FC032
:1001C00063C0C29AC1989C3229F4809163018F5F09
:1001D00080936301E0916601F0E0E959FE4F90835E
:1001E000809166018F5F8093660161C08091650197
:1001F000882309F45CC09A3209F059C080916401E7
:10020000811155C0E0916601F0E0E959FE4F8AE2A4
:100210008083809166018F5F80936601E091660123
:10022000F0E0E959FE4F10821092660181E0809360
:10023000640110926501C39AC198C29860E08AE097
:1002400077D480916201809162018E3F88F4E091C1
:100250006201F0E0E959FE4F808160E069D480914D
:1002600062018F5F80936201809162018E3F78F31B
:1002700060E08AE05DD410926201F89418C0809129
:100280006501811109C011C0809165018111B6CF4E
:100290000EC0809165010BC080916401FACF8091FE
:1002A0006401882309F48DCFF4CF80916501FF911B
:1002B000EF91BF91AF919F918F917F916F915F91DE
:1002C0004F913F912F910F900BBE0F900FBE0F904B
:1002D0001F901895EF92FF921F93CF93DF931F9279
:1002E000CDB7DEB77C01162F60E084E221D41982FD
:1002F0008981811768F49981F701E90FF11D60E0A8
:10030000808116D499819F5F99839981911798F381
:1003100060E08DE00DD460E08AE00AD40F90DF91B8
:10032000CF911F91FF90EF9008950F931F93CF935C
:10033000DF9300D000D01F92CDB7DEB78C011982B9
:100340008981F801E80FF11D80818A3291F099814D
:100350008A81F801E90FF11D908198279A8399818C
:100360009F5F99838981F801E80FF11D80818A32AE
:1003700071F78A811F928F9380E391E09F938F930F
:10038000CE0103969F938F93E1D789818F5F8983F5
:100390008981F801E80FF11D8B81808389818F5F4E
:1003A00089838981F801E80FF11D8C8180830F908A
:1003B0000F900F900F900F900F900F900F900F9045
:1003C0000F900F90DF91CF911F910F910895CF93D0
:1003D000DF9300D0CDB7DEB7AC0188E089831A8205
:1003E000898189818B3098F429819A81FB01E90FF9
:1003F000F11D9081FA01E20FF11D90839A819F5FB8
:100400009A8399819F5F998399819B3068F3CA0190
:100410008CDF0F900F90DF91CF910895CF93DF93F2
:10042000CDB7DEB76C970FB6F894DEBF0FBECDBF69
:100430001092660110926501109264018AE1EAE06F
:10044000F1E0DE01139601900D928A95E1F740E00C
:1004500060E875E280E090E04BD39A8389838981DC
:100460009A81009709F45DC02FEF87EA91E6215049
:1004700080409040E1F700C0000065E371E0CE01EC
:100480000396A5DF6AE1CE01039624DF2FEF85EA0C
:100490009EE0215080409040E1F700C0000069E3F9
:1004A00071E0CE01039693DF6AE1CE01039612DF7D
:1004B0002FEF85EA9EE0215080409040E1F700C098
:1004C00000006DE371E0CE01039681DF6AE1CE01A9
:1004D000039600DF2FEF85EA9EE021508040904098
:1004E000E1F700C0000061E471E0CE0103966FDF28
:1004F0006AE1CE010396EEDE2FEF85EA9EE0215001
:1005000080409040E1F700C0000065E471E0CE015A
:1005100003965DDF6AE1CE010396DCDE7894898183
:100520009A816C960FB6F894DEBF0FBECDBFDF91F7
:10053000CF910895AF92BF92CF92DF92EF92FF9248
:100540000F931F93CF93DF93CDB7DEB728970FB6E6
:10055000F894DEBF0FBECDBF6C018B01ADB6BEB649
:10056000CB0101962DB73EB7281B390B0FB6F89477
:100570003EBF0FBE2DBF8DB79EB701967C01AB016C
:10058000B601BDD6F701E00FF11F1082C70195D665
:1005900069837A838B839C83C601800F911F8DD6DC
:1005A0006D837E838F8398876D817E818F8198850F
:1005B000C980DA80EB80FC8020E030E040E752E444
:1005C0002AD3A7019601C3D20FB6F894BEBE0FBEC0
:1005D000ADBE28960FB6F894DEBF0FBECDBFDF913B
:1005E000CF911F910F91FF90EF90DF90CF90BF9030
:1005F000AF900895CF92DF92EF92FF920F931F93E7
:10060000CF93DF9300D01F92CDB7DEB77B0158D6D2
:100610008C019A8389831B829C018B81F801E80FEE
:10062000F11D8081882399F08B81F901E80FF11D7C
:1006300060E080817DD28B818F5F8B8329813A81BD
:100640008B81F901E80FF11D80818111EDCF8B8144
:10065000F901E80FF11D60E080816AD260E08AE074
:1006600067D21B821B828B81823058F469E471E06F
:10067000CE01019653D68B818F5F8B838B81823025
:10068000A8F31B828B81F801E80FF11D808188237C
:1006900079F069E471E0CE01019640D66C0162E028
:1006A00070E048DFF701628373838483958306C01B
:1006B000F701128213821482158268018B81F60180
:1006C000E80FF11D8081882399F069E471E0CE0183
:1006D000019624D6FC018081833551F4F701828193
:1006E0009381A481B581B05882839383A483B58319
:1006F00069E471E0CE01019611D66C011B828B81F9
:10070000F601E80FF11D8081882391F08B81E9814A
:10071000FA81E80FF11D60E080810AD29B819F5F22
:100720009B838B81F601E80FF11D80818111EECF53
:100730008B81F601E80FF11D60E08081F9D160E066
:100740008AE0F6D11B828B81F601E80FF11D8081D2
:10075000882351F063E070E0C601ECDEF7016683A8
:1007600077838087918705C0F701168217821086EC
:10077000118669E471E0CE010196D0D52B81FC0190
:10078000E20FF11D2081222371F0FC018081873569
:1007900051F4F70186819781A085B185B058868391
:1007A0009783A087B1871B828B81833058F469E4DB
:1007B00071E0CE010196B2D58B818F5F8B838B81E7
:1007C0008330A8F369E471E0CE010196A7D5FC015E
:1007D0002081222331F071D58BD2F70171836083A0
:1007E00003C0F70111821082C8017AD40F900F90D4
:1007F0000F90DF91CF911F910F91FF90EF90DF90BD
:10080000CF9008954F925F926F927F928F929F92B6
:10081000AF92BF92CF92DF92EF92FF920F931F930E
:10082000CF93DF93CDB7DEB7C251D1400FB6F89466
:10083000DEBF0FBECDBF8C0119821A821B821C82C3
:100840001D821E821F82188619861A869091640165
:10085000992309F4BDC0B80187E691E0CBDE109280
:100860006401C398D80112964D905D906D907C9074
:100870001597C55FDE4F488259826A827B82CB50D2
:10088000D140C301B2012FD26B837C838D839E83C1
:10089000F80186809780A084B184C501B40123D279
:1008A0006F83788789879A87209163016F81788524
:1008B00089859A85CF80D884E984FA844B805C80CE
:1008C0006D807E80C15FDE4F488259826A827B8262
:1008D000CF50D1404B805C806D807E801F922F93E3
:1008E000D80111962C9111972F932C912F932ED2E2
:1008F0009B01AC01C501B40129D120E030E543ECF6
:1009000057E4B0D2F0D199233CF49095809570953E
:1009100061957F4F8F4F9F4F9F938F937F936F93DF
:10092000FF92EF92DF92CF92C15FDE4F68817981B3
:100930008A819B81CF50D14009D29B01AC01C55F18
:10094000DE4F688179818A819B81CB50D140FED076
:1009500020E030E543EC57E485D2C5D199233CF43F
:1009600090958095709561957F4F8F4F9F4F9F9386
:100970008F937F936F937F926F925F924F928BE4EE
:1009800091E09F938F93CE010B969F938F93DED42C
:1009900089838A819A8189810FB6F894DEBF0FBE60
:1009A000CDBF981788F48A81EBE0F0E0EC0FFD1FD3
:1009B000E80FF11D60E08081BBD08A818F5F8A8360
:1009C0009A818981981778F360E08AE0B1D07894B1
:1009D000CE5EDE4F0FB6F894DEBF0FBECDBFDF9107
:1009E000CF911F910F91FF90EF90DF90CF90BF902C
:1009F000AF909F908F907F906F905F904F900895F1
:100A0000CF93DF93CDB7DEB72A970FB6F894DEBF4A
:100A10000FBECDBF1A8219821B821C821D821E82CC
:100A20001F82188619861A868FEF87BB88BB2FEF27
:100A300089E698E1215080409040E1F700C0000035
:100A400018BAECDCCE010196DDDEFCCF80E090E050
:100A50005ADBCB0127D4D4DF1F93CF93DF9300D091
:100A6000CDB7DEB7142FDC01CB01880F991FAA1F69
:100A7000BB1F880F991FAA1FBB1F9C01AD01220F2E
:100A8000331F441F551F220F331F441F551F60E0A3
:100A900074E284EF90E06DD2215031093A832983CA
:100AA00089819A8181159041D8F489819A81009732
:100AB000C9F0112359F089819A8190939800898116
:100AC0009A818093990089819A810CC089819A8149
:100AD0009093900089819A8189B989819A8102C015
:100AE00080E090E00F900F90DF91CF911F910895DB
:100AF0001F93CF93DF9300D0CDB7DEB7142FACDFB9
:100B00009A83898389819A81009761F0112331F05A
:100B100088E180939A0089819A8104C088E98AB922
:100B200089819A810F900F90DF91CF911F91089545
:100B3000662341F0EBE9F0E0908195FFFDCF8093D3
:100B40009C0008955D9BFECF8CB908955058BB273B
:100B5000AA270ED04DC13ED130F043D120F031F460
:100B60009F3F11F41EF433C10EF4E095E7FB29C159
:100B7000E92F4FD180F3BA176207730784079507EF
:100B800018F071F49EF567C10EF4E0950B2EBA2FA4
:100B9000A02D0B01B90190010C01CA01A001112483
:100BA000FF27591B99F0593F50F4503E68F11A162F
:100BB000F040A22F232F342F4427585FF3CF4695C0
:100BC00037952795A795F0405395C9F77EF41F16E2
:100BD000BA0B620B730B840BBAF09150A1F0FF0FAC
:100BE000BB1F661F771F881FC2F70EC0BA0F621F98
:100BF000731F841F48F4879577956795B795F79588
:100C00009E3F08F0B3CF9395880F08F09927EE0F19
:100C10009795879508950CD0EBC0E3D040F0DAD0DB
:100C200030F021F45F3F19F0CCC0511115C1CFC095
:100C3000F0D098F39923C9F35523B1F3951B550BC5
:100C4000BB27AA2762177307840738F09F5F5F4F9F
:100C5000220F331F441FAA1FA9F333D00E2E3AF0E0
:100C6000E0E830D091505040E695001CCAF729D0FA
:100C7000FE2F27D0660F771F881FBB1F2617370749
:100C80004807AB07B0E809F0BB0B802DBF01FF2779
:100C900093585F4F2AF09E3F510568F092C0DCC028
:100CA0005F3FECF3983EDCF3869577956795B795B3
:100CB000F7959F5FC9F7880F911D9695879597F9CE
:100CC0000895E1E0660F771F881FBB1F6217730747
:100CD0008407BA0720F0621B730B840BBA0BEE1F5C
:100CE00088F7E095089504D06894B111B5C00895CF
:100CF00098D088F09F5790F0B92F9927B751A0F05E
:100D0000D1F0660F771F881F991F1AF0BA95C9F79F
:100D100012C0B13081F09FD0B1E008959CC0672F20
:100D2000782F8827B85F39F0B93FCCF3869577954F
:100D30006795B395D9F73EF4909580957095619538
:100D40007F4F8F4F9F4F0895E89409C097FB3EF463
:100D500090958095709561957F4F8F4F9F4F992308
:100D6000A9F0F92F96E9BB279395F6958795779586
:100D70006795B795F111F8CFFAF4BB0F11F460FF46
:100D80001BC06F5F7F4F8F4F9F4F16C0882311F09E
:100D900096E911C0772321F09EE8872F762F05C0B2
:100DA000662371F096E8862F70E060E02AF09A954D
:100DB000660F771F881FDAF7880F9695879597F942
:100DC000089597F99F6780E870E060E008959FEFCD
:100DD00080EC089500240A941616170618060906D2
:100DE000089500240A9412161306140605060895A1
:100DF000092E0394000C11F4882352F0BB0F40F429
:100E0000BF2B11F460FF04C06F5F7F4F8F4F9F4F68
:100E1000089557FD9058440F551F59F05F3F71F0EA
:100E20004795880F97FB991F61F09F3F79F0879551
:100E30000895121613061406551FF2CF4695F1DFDA
:100E400008C0161617061806991FF1CF869571056A
:100E5000610508940895E894BB2766277727CB019E
:100E600097F908950BD0C4CFB5DF28F0BADF18F09A
:100E7000952309F0A6CFABCF1124EECFCADFA0F3A4
:100E8000959FD1F3950F50E0551F629FF001729F1F
:100E9000BB27F00DB11D639FAA27F00DB11DAA1F3E
:100EA000649F6627B00DA11D661F829F2227B00D8B
:100EB000A11D621F739FB00DA11D621F839FA00D16
:100EC000611D221F749F3327A00D611D231F849F66
:100ED000600D211D822F762F6A2F11249F575040BD
:100EE0008AF0E1F088234AF0EE0FFF1FBB1F661F58
:100EF000771F881F91505040A9F79E3F510570F011
:100F000060CFAACF5F3FECF3983EDCF386957795F0
:100F10006795B795F795E7959F5FC1F7FE2B880F0B
:100F2000911D9695879597F90895990F0008550F8B
:100F3000AA0BE0E8FEEF16161706E807F907C0F05F
:100F400012161306E407F50798F0621B730B840B67
:100F5000950B39F40A2661F0232B242B252B21F441
:100F600008950A2609F4A140A6958FEF811D811DE1
:100F70000895A1E21A2EAA1BBB1BFD010DC0AA1FDA
:100F8000BB1FEE1FFF1FA217B307E407F50720F0F2
:100F9000A21BB30BE40BF50B661F771F881F991F6D
:100FA0001A9469F760957095809590959B01AC01B6
:100FB000BD01CF010895CF93DF938230910510F4E6
:100FC00082E090E0E0916902F0916A0220E030E076
:100FD000C0E0D0E0309711F14081518148175907A6
:100FE000C0F04817590761F482819381209719F066
:100FF0009B838A832BC090936A028093690226C0E8
:101000002115310519F04217530718F49A01BE0152
:10101000DF01EF010280F381E02DDCCF21153105E6
:1010200009F1281B390B2430310590F412968D916B
:101030009C9113976115710521F0FB0193838283C5
:1010400004C090936A0280936902FD01329644C005
:10105000FD01E20FF31F81939193225031092D93EB
:101060003C933AC02091670230916802232B41F4EF
:1010700020910201309103013093680220936702AE
:1010800020910001309101012115310541F42DB766
:101090003EB74091040150910501241B350BE091AE
:1010A0006702F0916802E217F307A0F42E1B3F0BD2
:1010B0002817390778F0AC014E5F5F4F24173507CA
:1010C00048F04E0F5F1F5093680240936702819370
:1010D000919302C0E0E0F0E0CF01DF91CF9108955D
:1010E0000F931F93CF93DF93009709F48CC0FC01FB
:1010F0003297138212820091690210916A020115DF
:10110000110581F420813181820F931F20916702A4
:10111000309168022817390779F5F0936802E09357
:10112000670271C0D80140E050E0AE17BF0750F42D
:1011300012962D913C911397AD012115310509F1BE
:10114000D901F3CF9D01DA0133832283608171815C
:10115000860F971F8217930769F4EC012881398164
:10116000260F371F2E5F3F4F318320838A819B815B
:1011700093838283452B29F4F0936A02E0936902FA
:1011800042C01396FC93EE931297ED014991599149
:101190009E01240F351FE217F30771F480819181BE
:1011A000840F951F029611969C938E938281938152
:1011B00013969C938E931297E0E0F0E0D80112967C
:1011C0008D919C911397009719F0F8018C01F6CF3F
:1011D0008D919C9198012E5F3F4F820F931F20911C
:1011E0006702309168022817390769F4309729F4AB
:1011F00010926A021092690202C013821282109346
:10120000680200936702DF91CF911F910F910895BB
:101210008F929F92AF92BF92CF92DF92EF92FF9206
:10122000CF93DF93EC01688179818A819B8161157D
:1012300071058105910521F464E279ED8BE597E074
:101240002DE133EF41E050E0D7D449015A019B0131
:10125000AC01A7EAB1E4ECD46B017C01ACEEB4EFD5
:10126000A5019401F1D4DC01CB018C0D9D1DAE1DB7
:10127000BF1DB7FF03C00197A109B04888839983B8
:10128000AA83BB839F77DF91CF91FF90EF90DF9090
:10129000CF90BF90AF909F908F900895B9CF86E088
:1012A00091E0B6CFA0E0B0E08093060190930701F3
:1012B000A0930801B093090108956627772763C2B8
:1012C0000F931F93CF93DF938C01FC0101900020BB
:1012D000E9F7CF01801B910B6EDEEC01009711F056
:1012E000B80106D0CE01DF91CF911F910F910895E3
:1012F000FB01DC0101900D920020E1F70895FB0154
:10130000DC014150504048F001900D920020C9F797
:1013100001C01D9241505040E0F70895FC01A081AA
:10132000B181AD01109681F03D91FB010190031652
:101330000110E1F7C9F7002011F4D00102C01E929C
:101340001196FC01A083B183CA0108950F931F93E6
:10135000CF93DF93CDB7DEB72E970FB6F894DEBFED
:101360000FBECDBF0D891E8986E08C831A83098349
:101370008FEF9FE79E838D83AE01475E5F4F6F893E
:10138000788DCE01019611D02F813885F801E20FBA
:10139000F31F10822E960FB6F894DEBF0FBECDBF9E
:1013A000DF91CF911F910F9108952F923F924F920D
:1013B0005F926F927F928F929F92AF92BF92CF92E5
:1013C000DF92EF92FF920F931F93CF93DF93CDB7EE
:1013D000DEB72C970FB6F894DEBF0FBECDBF7C01F1
:1013E0006B018A01FC0117821682838181FFB0C1E3
:1013F000CE0101964C01F7019381F60193FD859191
:1014000093FF81916F01882309F49EC1853239F4DD
:1014100093FD859193FF81916F01853221F4B7018E
:1014200090E04DD3E8CF512C312C20E02032A0F4B5
:101430008B3269F030F4803259F0833269F42061E4
:101440002CC08D3239F0803339F4216026C02260FF
:10145000246023C0286021C027FD27C030ED380F4D
:101460003A3078F426FF06C0FAE05F9E300D112472
:10147000532E13C08AE0389E300D1124332E206283
:101480000CC08E3221F426FD5FC1206406C08C366C
:1014900011F4206802C0883641F4F60193FD85916D
:1014A00093FF81916F018111C1CF982F9F7D95543A
:1014B000933028F40C5F1F4FFFE3F9830DC0833690
:1014C00031F0833771F0833509F057C021C0F8013E
:1014D000808189830E5F1F4F44244394512C540113
:1014E00014C03801F2E06F0E711CF801A080B180C9
:1014F00026FF03C0652D70E002C06FEF7FEFC501CE
:101500002C87D2D22C0183012C852F77222E16C056
:101510003801F2E06F0E711CF801A080B18026FF47
:1015200003C0652D70E002C06FEF7FEFC5012C870F
:10153000B0D22C012C852068222E830123FC19C0F7
:10154000832D90E048165906A0F4B70180E290E0A0
:10155000B6D23A94F5CFF50127FC859127FE81910B
:101560005F01B70190E0ABD231103A94F1E04F1A2D
:1015700051084114510479F7DEC0843611F08936E0
:1015800031F5F80127FF07C0608171818281938165
:101590000C5F1F4F08C060817181072E000C880B03
:1015A000990B0E5F1F4F2F76722E97FF09C09095F3
:1015B0008095709561957F4F8F4F9F4F2068722E59
:1015C0002AE030E0A401B3D2A82EA81843C0853782
:1015D00029F42F7EB22E2AE030E025C0F22FF97FC9
:1015E000BF2E8F36C1F018F4883579F0ADC0803742
:1015F00019F0883721F0A8C02F2F2061B22EB4FE39
:101600000DC08B2D8460B82E09C024FF0AC09F2F07
:101610009660B92E06C028E030E005C020E130E039
:1016200002C020E132E0F801B7FE07C0608171819D
:10163000828193810C5F1F4F06C06081718180E0C1
:1016400090E00E5F1F4FA40172D2A82EA818FB2DA8
:10165000FF777F2E76FE0BC0372D3E7FA51450F40A
:1016600074FE0AC072FC08C0372D3E7E05C0BA2C3D
:10167000372D03C0BA2C01C0B52C34FF0DC0FE01BC
:10168000EA0DF11D8081803311F4397E09C032FFEB
:1016900006C0B394B39404C0832F867809F0B39442
:1016A00033FD12C030FF06C05A2CB31418F4530C8B
:1016B0005B18B32CB31460F4B70180E290E03C8770
:1016C000FED1B3943C85F6CFB31410F43B1801C09F
:1016D000312C34FF11C0B70180E390E03C87EFD19B
:1016E0003C8532FF16C031FD03C088E790E002C0A0
:1016F00088E590E0B7010CC0832F867851F031FF68
:1017000002C08BE201C080E237FD8DE2B70190E0BC
:10171000D6D1A51430F4B70180E390E0D0D15A942B
:10172000F8CFAA94F401EA0DF11D8081B70190E091
:10173000C6D1A110F6CF332009F45DCEB70180E207
:1017400090E0BDD13A94F7CFF7018681978102C02E
:101750008FEF9FEF2C960FB6F894DEBF0FBECDBF74
:10176000DF91CF911F910F91FF90EF90DF90CF907D
:10177000BF90AF909F908F907F906F905F904F90B1
:101780003F902F9008956F927F928F929F92AF9289
:10179000BF92CF92DF92EF92FF920F931F93CF935E
:1017A000DF93EC017B016115710519F0DB018D936D
:1017B0009C938E010F5F1F4F7880872D90E049D159
:1017C000892B11F0E801F5CFBDE27B1205C00F5F58
:1017D0001F4F7980C1E008C0EBE27E1204C08E0189
:1017E0000E5F1F4F7980C0E06801F1E0CF1AD10889
:1017F00043E050E064E970E0C60133D1892BE9F49D
:10180000680122E0C20ED11C45E050E06FE870E0B4
:10181000C60127D1892B21F4680187E0C80ED11CAD
:10182000E114F10419F0D701CD92DC92C111F9C095
:1018300060E070E080E89FE7FDC043E050E06CE8C6
:1018400070E0C6010ED1892B51F4E114F10409F4C2
:10185000EDC00E5F1F4FF70111830083E7C06801E1
:1018600060E070E0CB0100E010E0F601D0EDD70DB4
:10187000DA3050F52C2F2260622E2C2F2870C2FFF8
:1018800005C0211127C00F5F1F4F24C0222311F074
:1018900001501109A5E0B0E09B01AC01C9D14B0199
:1018A0005C01880C991CAA1CBB1CC501B4016D0FFE
:1018B000711D811D911D6839A9E97A078A07A9E17F
:1018C0009A0740F0C66005C0DE3F51F4C3FD44C036
:1018D000C8606C2EBFEFCB1ADB0A7080C62DC5CF57
:1018E0002D2F2F7D2531C1F540814D3211F4C0617E
:1018F00006C04B3221F0319621E030E006C032962E
:10190000D60111964C9122E030E0A0EDA40FAA3050
:1019100018F0E21BF30B20C040E050E04038BCE080
:101920005B075CF49A01220F331F220F331F420F13
:10193000531F440F551F4A0F511D3196DF01119758
:101940002C91A0EDA20FAA3048F3C4FF03C051951B
:1019500041955109040F151FC1FF07C0E114F1049F
:1019600021F03197D701ED93FC93EED9C370C330CA
:1019700019F06B017C0106C06B017C01F7FAF09451
:10198000F7F8F09420E030E0A901C701B6012DD1AD
:10199000882309F443C017FF06C01195019511096A
:1019A000CBEAD0E002C0C3ECD0E05E01B8E1AB1AF4
:1019B000B1084601BE2DAF2D90E2E92EF12C0E1597
:1019C0001F057CF0FE012591359145915491B4019C
:1019D0008B2F9A2F47DA4B01B82FA92F0E191F0909
:1019E000EECF2497F594E794CA15DB0541F764011F
:1019F000EB2EFA2E8E2D880F8F2D881F8F3F41F0F2
:101A000020E030E0A901C701B601EFD0811106C086
:101A100082E290E09093700280936F02C701B6015A
:101A200009C060E070E080E89FEF04C060E070E013
:101A300080EC9FE7DF91CF911F910F91FF90EF9086
:101A4000DF90CF90BF90AF909F908F907F906F90DE
:101A500008959111CEC0803219F089508550D0F789
:101A60000895FB01DC014150504088F08D91813494
:101A70001CF08B350CF4805E659161341CF06B3585
:101A80000CF4605E861B611171F3990B0895881B3D
:101A9000FCCFFC010590615070400110D8F7809593
:101AA00090958E0F9F1F0895FC016150704001902A
:101AB0000110D8F7809590958E0F9F1F08950F9372
:101AC0001F93CF93DF93FB01238121FD03C08FEF91
:101AD0009FEF28C022FF16C046815781248135819F
:101AE0004217530744F4A081B1819D012F5F3F4FFE
:101AF000318320838C93268137812F5F3F4F37833B
:101B0000268310C0EB01092F182F0084F185E02DEA
:101B10000995892BE1F68E819F8101969F838E83A3
:101B2000812F902FDF91CF911F910F910895FA018E
:101B3000AA27283051F1203181F1E8946F936E7F0C
:101B40006E5F7F4F8F4F9F4FAF4FB1E03ED0B4E0FD
:101B50003CD0670F781F891F9A1FA11D680F791F3E
:101B60008A1F911DA11D6A0F711D811D911DA11D4F
:101B700020D009F468943F912AE0269F112430195F
:101B8000305D3193DEF6CF010895462F4770405DFA
:101B90004193B3E00FD0C9F7F6CF462F4F70405DA9
:101BA0004A3318F0495D31FD4052419302D0A9F704
:101BB000EACFB4E0A6959795879577956795BA95FE
:101BC000C9F700976105710508959B01AC010A2EC4
:101BD00006945795479537952795BA95C9F7620F9B
:101BE000731F841F951FA01D08959FD908F481E0DD
:101BF0000895992788270895052E97FB16F40094D9
:101C00000FD057FD05D0B5D907FC02D046F408C067
:101C100050954095309521953F4F4F4F5F4F089518
:101C200090958095709561957F4F8F4F9F4F089548
:101C30000FD0A59F900DB49F900DA49F800D911D76
:101C400011240895B7FFF4CFF3DF821B930B08959F
:101C5000A29FB001B39FC001A39F700D811D1124ED
:101C6000911DB29F700D811D1124911D0895F8944E
:021C7000FFCFA4
:101C720000007102200001000000505542582C342F
:101C8200302C5F5F5F2C302C302C302C302C302CE1
:101C9200302A5F5F00505542582C30302A333300CF
:101CA2002530325800474C4C0047534100475356A9
:101CB20000524D4300565447002C0020256C642EE0
:101CC200256C6420256C642E256C642025752025E6
:021CD20075009B
:00000001FF
