S01B00004D656761313238426F617264475053546573742E7372656382
S113000063C000007FC000007DC000007BC0000012
S113001079C0000077C0000075C0000073C0000004
S113002071C000006FC000006DC000006BC0000014
S113003069C0000067C0000065C0000063C0000024
S113004061C000005FC0000073C000005BC000001E
S113005059C0000057C0000055C0000053C0000044
S113006051C000004FC000004DC000004BC0000054
S113007049C0000047C0000045C0000043C0000064
S113008041C000003FC000003DC000004E414E4949
S11300904E495459494E46CDCCCC3D0AD7233C1742
S11300A0B7D13877CC2B329595E6241FB14F0A008F
S11300B00020410000C84200401C4620BCBE4CCA7F
S11300C01B0E5AAEC59D740011241FBECFEFD0E1A4
S11300D0DEBFCDBF11E0A0E0B1E0EAE6F9E100E067
S11300E00BBF02C007900D92A23CB107D9F722E0E2
S11300F0A2ECB1E001C01D92AF3CB207E1F716D00B
S11301000C94B30C7DCFFC010FB6F8946091C90236
S11301107091CA028091CB029091CC020FBE3097AD
S113012021F06083718382839383089507D3FFCF83
S11301301F920F920FB60F9211240BB60F922F93AA
S11301408F939F93EF93FF938CB128B391E0922701
S113015098BB8CB98432B1F49091C202911142C01F
S113016081E08093C3021092C402E091C402F0E0E3
S1130170EE53FE4F84E280838091C4028F5F8093AC
S1130180C4023FC09091C302992391F08A3279F15D
S11301909091C202911130C0E091C402F0E0EE539C
S11301A0FE4F80838091C4028F5F8093C40229C074
S11301B09091C302992329F18A3219F58091C202E0
S11301C081111FC0E091C402F0E0EE53FE4F8AE2B9
S11301D080831092C40281E08093C2021092C30211
S11301E0F8940FC09091C3029111D2CF08C08091AE
S11301F0C3028111E3CF05C08091C30202C0809184
S1130200C302FF91EF919F918F912F910F900BBE9D
S11302100F900FBE0F901F901895EF92FF921F93AF
S1130220CF93DF931F92CDB7DEB77C01162F60E02A
S113023084E2F6D219828981811768F49981F701E1
S1130240E90FF11D60E08081EBD299819F5F998372
S11302509981911798F360E08DE0E2D260E08AE042
S1130260DFD20F90DF91CF911F91FF90EF9008950F
S11302700F931F93CF93DF9300D000D01F92CDB77D
S1130280DEB78C0119828981F801E80FF11D8081A4
S11302908A3291F099818A81F801E90FF11D9081E8
S11302A098279A8399819F5F99838981F801E80F40
S11302B0F11D80818A3271F78A811F928F9380E3C6
S11302C091E09F938F93CE0103969F938F9357D67C
S11302D089818F5F89838981F801E80FF11D8B8102
S11302E0808389818F5F89838981F801E80FF11DFB
S11302F08C8180830F900F900F900F900F900F9030
S11303000F900F900F900F900F90DF91CF911F914E
S11303100F910895CF93DF9300D0CDB7DEB7AC0132
S113032088E089831A82898189818B3098F42981B4
S11303309A81FB01E90FF11D9081FA01E20FF11D91
S113034090839A819F5F9A8399819F5F9983998112
S11303509B3068F3CA018CDF0F900F90DF91CF912F
S11303600895CF93DF93CDB7DEB76C970FB6F894AB
S1130370DEBF0FBECDBF1092C4021092C302109212
S1130380C2028AE1EAE0F1E0DE01139601900D92E7
S11303908A95E1F740E060E875E280E090E020D2E1
S11303A09A83898389819A81009709F45DC02FEF2C
S11303B087EA91E6215080409040E1F700C00000B8
S11303C065E371E0CE010396A5DF6AE1CE010396F1
S11303D024DF2FEF85EA9EE0215080409040E1F732
S11303E000C0000069E371E0CE01039693DF6AE187
S11303F0CE01039612DF2FEF85EA9EE02150804064
S11304009040E1F700C000006DE371E0CE01039677
S113041081DF6AE1CE01039600DF2FEF85EA9EE0DB
S1130420215080409040E1F700C0000061E471E099
S1130430CE0103966FDF6AE1CE010396EEDE2FEF65
S113044085EA9EE0215080409040E1F700C0000022
S113045065E471E0CE0103965DDF6AE1CE010396A7
S1130460DCDE789489819A816C960FB6F894DEBFAD
S11304700FBECDBFDF91CF910895AF92BF92CF92BF
S1130480DF92EF92FF920F931F93CF93DF93CDB739
S1130490DEB728970FB6F894DEBF0FBECDBF6C0150
S11304A08B01ADB6BEB6CB0101962DB73EB7281B66
S11304B0390B0FB6F8943EBF0FBE2DBF8DB79EB754
S11304C001967C01AB01B60133D5F701E00FF11FB2
S11304D01082C7010BD569837A838B839C83C60101
S11304E0800F911F03D56D837E838F8398876D81E1
S11304F07E818F819885C980DA80EB80FC8020E042
S113050030E040E752E4FFD1A701960198D10FB63D
S1130510F894BEBE0FBEADBE28960FB6F894DEBFEB
S11305200FBECDBFDF91CF911F910F91FF90EF9040
S1130530DF90CF90BF90AF900895EF92FF920F930A
S11305401F93CF93DF9300D0CDB7DEB78B01D1D407
S11305507C019A83898369E471E0CE010196F7D422
S113056069E471E0CE010196F2D469E471E0CE0150
S11305700196EDD462E070E080DFF801628373835A
S11305808483958369E471E0CE010196E0D4FC0193
S11305908081833551F4F80182819381A481B581EE
S11305A0B05882839383A483B58369E471E0CE0158
S11305B00196CDD463E070E060DFF8016683778351
S11305C08087918769E471E0CE010196C0D4FC0173
S11305D080818735B9F4F80186819781A085B1853A
S11305E0B05886839783A087B1870CC07FD4F8D195
S11305F0F8017183608303C0F80111821082C7017E
S113060088D319C069E471E0CE010196A0D469E4ED
S113061071E0CE0101969BD469E471E0CE010196AC
S113062096D469E471E0CE01019691D4FC01208155
S1130630222311F3DBCF0F900F90DF91CF911F9105
S11306400F91FF90EF9008952091C202222339F078
S1130650BC0182EC91E071DF1092C202789408959B
S1130660CF93DF93CDB7DEB72A970FB6F894DEBFEA
S11306700FBECDBF1A8219821B821C821D821E826C
S11306801F82188619861A868FEF87BB88BB2FEFC7
S113069089E698E1215080409040E1F700C00000D5
S11306A018BA5FDE03C0CE010196CEDFCB80DC80BA
S11306B0ED80FE8062E070E08AEA91E0DEDE9B017C
S11306C0AC01C701B601BAD086D19B01772324F4CB
S11306D022273327261B370BB901330F880B990BBD
S11306E0ADD127E137EB41ED58E334D218161CF5B0
S11306F0CF80D884E984FA8463E070E085EB91E0EC
S1130700BCDE9B01AC01C701B60198D064D19B014A
S1130710772324F422273327261B370BB901330F01
S1130720880B990B8BD127E137EB41ED58E312D2BB
S113073018160CF4B8CF8FEF88BBFFCF80E090E0A1
S1130740E2DCCB01C8D38CDF1F93CF93DF9300D0BF
S1130750CDB7DEB7142FDC01CB01880F991FAA1F78
S1130760BB1F880F991FAA1FBB1F9C01AD01220F3D
S1130770331F441F551F220F331F441F551F60E0B2
S113078074E284EF90E00ED2215031093A83298338
S113079089819A8181159041D8F489819A81009741
S11307A0C9F0112359F089819A8190939800898125
S11307B09A818093990089819A810CC089819A8158
S11307C09093900089819A8189B989819A8102C024
S11307D080E090E00F900F90DF91CF911F910895EA
S11307E01F93CF93DF9300D0CDB7DEB7142FACDFC8
S11307F09A83898389819A81009761F0112331F06A
S113080088E180939A0089819A8104C088E98AB931
S113081089819A810F900F90DF91CF911F91089554
S1130820662341F0EBE9F0E0908195FFFDCF8093E2
S11308309C0008955D9BFECF8CB908955058BB274A
S1130840AA270ED04DC13ED130F043D120F031F46F
S11308509F3F11F41EF433C10EF4E095E7FB29C168
S1130860E92F4FD180F3BA176207730784079507FE
S113087018F071F49EF567C10EF4E0950B2EBA2FB3
S1130880A02D0B01B90190010C01CA01A001112492
S1130890FF27591B99F0593F50F4503E68F11A163E
S11308A0F040A22F232F342F4427585FF3CF4695CF
S11308B037952795A795F0405395C9F77EF41F16F1
S11308C0BA0B620B730B840BBAF09150A1F0FF0FBB
S11308D0BB1F661F771F881FC2F70EC0BA0F621FA7
S11308E0731F841F48F4879577956795B795F79597
S11308F09E3F08F0B3CF9395880F08F09927EE0F29
S11309009795879508950CD0EBC0E3D040F0DAD0EA
S113091030F021F45F3F19F0CCC0511115C1CFC0A4
S1130920F0D098F39923C9F35523B1F3951B550BD4
S1130930BB27AA2762177307840738F09F5F5F4FAE
S1130940220F331F441FAA1FA9F333D00E2E3AF0EF
S1130950E0E830D091505040E695001CCAF729D009
S1130960FE2F27D0660F771F881FBB1F2617370758
S11309704807AB07B0E809F0BB0B802DBF01FF2788
S113098093585F4F2AF09E3F510568F092C0DCC037
S11309905F3FECF3983EDCF3869577956795B795C2
S11309A0F7959F5FC9F7880F911D9695879597F9DD
S11309B00895E1E0660F771F881FBB1F6217730756
S11309C08407BA0720F0621B730B840BBA0BEE1F6B
S11309D088F7E095089504D06894B111B5C00895DE
S11309E098D088F09F5790F0B92F9927B751A0F06D
S11309F0D1F0660F771F881F991F1AF0BA95C9F7AF
S1130A0012C0B13081F09FD0B1E008959CC0672F2F
S1130A10782F8827B85F39F0B93FCCF3869577955E
S1130A206795B395D9F73EF4909580957095619547
S1130A307F4F8F4F9F4F0895E89409C097FB3EF472
S1130A4090958095709561957F4F8F4F9F4F992317
S1130A50A9F0F92F96E9BB279395F6958795779595
S1130A606795B795F111F8CFFAF4BB0F11F460FF55
S1130A701BC06F5F7F4F8F4F9F4F16C0882311F0AD
S1130A8096E911C0772321F09EE8872F762F05C0C1
S1130A90662371F096E8862F70E060E02AF09A955C
S1130AA0660F771F881FDAF7880F9695879597F951
S1130AB0089597F99F6780E870E060E008959FEFDC
S1130AC080EC089500240A941616170618060906E1
S1130AD0089500240A9412161306140605060895B0
S1130AE0092E0394000C11F4882352F0BB0F40F438
S1130AF0BF2B11F460FF04C06F5F7F4F8F4F9F4F78
S1130B00089557FD9058440F551F59F05F3F71F0F9
S1130B104795880F97FB991F61F09F3F79F0879560
S1130B200895121613061406551FF2CF4695F1DFE9
S1130B3008C0161617061806991FF1CF8695710579
S1130B40610508940895E894BB2766277727CB01AD
S1130B5097F9089503D008F48FEF0895990F0008CA
S1130B60550FAA0BE0E8FEEF16161706E807F9077B
S1130B70C0F012161306E407F50798F0621B730B16
S1130B80840B950B39F40A2661F0232B242B252B97
S1130B9021F408950A2609F4A140A6958FEF811D3A
S1130BA0811D0895A1E21A2EAA1BBB1BFD010DC0D5
S1130BB0AA1FBB1FEE1FFF1FA217B307E407F50709
S1130BC020F0A21BB30BE40BF50B661F771F881FE5
S1130BD0991F1A9469F760957095809590959B017B
S1130BE0AC01BD01CF010895CF93DF93823091050D
S1130BF010F482E090E0E091C702F091C80220E096
S1130C0030E0C0E0D0E0309711F1408151814817C5
S1130C105907C0F04817590761F4828193812097DE
S1130C2019F09B838A832BC09093C8028093C702D8
S1130C3026C02115310519F04217530718F49A01FB
S1130C40BE01DF01EF010280F381E02DDCCF21152D
S1130C50310509F1281B390B2430310590F4129623
S1130C608D919C9113976115710521F0FB0193837C
S1130C70828304C09093C8028093C702FD01329618
S1130C8044C0FD01E20FF31F819391932250310977
S1130C902D933C933AC02091C5023091C602232B78
S1130CA041F420910201309103013093C602209354
S1130CB0C50220910001309101012115310541F453
S1130CC02DB73EB74091040150910501241B350B0B
S1130CD0E091C502F091C602E217F307A0F42E1BBF
S1130CE03F0B2817390778F0AC014E5F5F4F24178C
S1130CF0350748F04E0F5F1F5093C6024093C5025C
S1130D008193919302C0E0E0F0E0CF01DF91CF91B5
S1130D1008950F931F93CF93DF93009709F48CC02A
S1130D20FC013297138212820091C7021091C8020B
S1130D300115110581F420813181820F931F2091C7
S1130D40C5023091C6022817390779F5F093C60217
S1130D50E093C50271C0D80140E050E0AE17BF0770
S1130D6050F412962D913C911397AD012115310544
S1130D7009F1D901F3CF9D01DA0133832283608124
S1130D807181860F971F8217930769F4EC012881FC
S1130D903981260F371F2E5F3F4F318320838A818D
S1130DA09B8193838283452B29F4F093C802E093BB
S1130DB0C70242C01396FC93EE931297ED0149913A
S1130DC059919E01240F351FE217F30771F48081B6
S1130DD09181840F951F029611969C938E93828124
S1130DE0938113969C938E931297E0E0F0E0D801E0
S1130DF012968D919C911397009719F0F8018C012C
S1130E00F6CF8D919C9198012E5F3F4F820F931FD7
S1130E102091C5023091C6022817390769F430972A
S1130E2029F41092C8021092C70202C013821282DF
S1130E301093C6020093C502DF91CF911F910F91C9
S1130E4008958F929F92AF92BF92CF92DF92EF92CA
S1130E50FF92CF93DF93EC01688179818A819B8132
S1130E60611571058105910521F464E279ED8BE545
S1130E7097E02DE133EF41E050E03AD549015A01C2
S1130E809B01AC01A7EAB1E44FD56B017C01ACEE48
S1130E90B4EFA501940154D5DC01CB018C0D9D1D4B
S1130EA0AE1DBF1DB7FF03C00197A109B0488883D9
S1130EB09983AA83BB839F77DF91CF91FF90EF90B3
S1130EC0DF90CF90BF90AF909F908F900895B9CF4F
S1130ED086E091E0B6CFA0E0B0E080930601909365
S1130EE00701A0930801B0930901089566277727A5
S1130EF063C20F931F93CF93DF938C01FC01019086
S1130F000020E9F7CF01801B910B6EDEEC01009706
S1130F1011F0B80106D0CE01DF91CF911F910F914E
S1130F200895FB01DC0101900D920020E1F7089582
S1130F30FB01DC014150504048F001900D9200202B
S1130F40C9F701C01D9241505040E0F70895FC01DB
S1130F50A081B181AD01109681F03D91FB0101901A
S1130F6003160110E1F7C9F7002011F4D00102C003
S1130F701E921196FC01A083B183CA0108950F93B8
S1130F801F93CF93DF93CDB7DEB72E970FB6F894A8
S1130F90DEBF0FBECDBF0D891E8986E08C831A8308
S1130FA009838FEF9FE79E838D83AE01475E5F4F7A
S1130FB06F89788DCE01019611D02F813885F80183
S1130FC0E20FF31F10822E960FB6F894DEBF0FBE09
S1130FD0CDBFDF91CF911F910F9108952F923F9232
S1130FE04F925F926F927F928F929F92AF92BF9235
S1130FF0CF92DF92EF92FF920F931F93CF93DF93E1
S1131000CDB7DEB72C970FB6F894DEBF0FBECDBFB9
S11310107C016B018A01FC0117821682838181FFA6
S1131020B0C1CE0101964C01F7019381F60193FD05
S1131030859193FF81916F01882309F49EC18532C4
S113104039F493FD859193FF81916F01853221F4E9
S1131050B70190E04DD3E8CF512C312C20E0203261
S1131060A0F48B3269F030F4803259F0833269F4A1
S113107020612CC08D3239F0803339F4216026C0D0
S11310802260246023C0286021C027FD27C030EDE2
S1131090380F3A3078F426FF06C0FAE05F9E300D30
S11310A01124532E13C08AE0389E300D1124332EA0
S11310B020620CC08E3221F426FD5FC1206406C07C
S11310C08C3611F4206802C0883641F4F60193FD91
S11310D0859193FF81916F018111C1CF982F9F7DDD
S11310E09554933028F40C5F1F4FFFE3F9830DC030
S11310F0833631F0833771F0833509F057C021C04E
S1131100F801808189830E5F1F4F44244394512C3E
S1131110540114C03801F2E06F0E711CF801A08074
S1131120B18026FF03C0652D70E002C06FEF7FEF32
S1131130C5012C87D2D22C0183012C852F77222E36
S113114016C03801F2E06F0E711CF801A080B18066
S113115026FF03C0652D70E002C06FEF7FEFC5016D
S11311602C87B0D22C012C852068222E830123FCED
S113117019C0832D90E048165906A0F4B70180E207
S113118090E0B6D23A94F5CFF50127FC859127FE7D
S113119081915F01B70190E0ABD231103A94F1E054
S11311A04F1A51084114510479F7DEC0843611F006
S11311B0893631F5F80127FF07C06081718182818A
S11311C093810C5F1F4F08C060817181072E000C52
S11311D0880B990B0E5F1F4F2F76722E97FF09C055
S11311E090958095709561957F4F8F4F9F4F2068A4
S11311F0722E2AE030E0A401B3D2A82EA81843C06E
S1131200853729F42F7EB22E2AE030E025C0F22F54
S1131210F97FBF2E8F36C1F018F4883579F0ADC050
S1131220803719F0883721F0A8C02F2F2061B22E03
S1131230B4FE0DC08B2D8460B82E09C024FF0AC0F3
S11312409F2F9660B92E06C028E030E005C020E14B
S113125030E002C020E132E0F801B7FE07C060814F
S11312607181828193810C5F1F4F06C060817181FF
S113127080E090E00E5F1F4FA40172D2A82EA81840
S1131280FB2DFF777F2E76FE0BC0372D3E7FA514F6
S113129050F474FE0AC072FC08C0372D3E7E05C0AF
S11312A0BA2C372D03C0BA2C01C0B52C34FF0DC0A5
S11312B0FE01EA0DF11D8081803311F4397E09C0ED
S11312C032FF06C0B394B39404C0832F867809F028
S11312D0B39433FD12C030FF06C05A2CB31418F473
S11312E0530C5B18B32CB31460F4B70180E290E0A4
S11312F03C87FED1B3943C85F6CFB31410F43B186D
S113130001C0312C34FF11C0B70180E390E03C8769
S1131310EFD13C8532FF16C031FD03C088E790E071
S113132002C088E590E0B7010CC0832F867851F0A5
S113133031FF02C08BE201C080E237FD8DE2B701CC
S113134090E0D6D1A51430F4B70180E390E0D0D179
S11313505A94F8CFAA94F401EA0DF11D8081B701E3
S113136090E0C6D1A110F6CF332009F45DCEB701C9
S113137080E290E0BDD13A94F7CFF701868197815E
S113138002C08FEF9FEF2C960FB6F894DEBF0FBE0E
S1131390CDBFDF91CF911F910F91FF90EF90DF9020
S11313A0CF90BF90AF909F908F907F906F905F9001
S11313B04F903F902F9008956F927F928F929F92BB
S11313C0AF92BF92CF92DF92EF92FF920F931F934F
S11313D0CF93DF93EC017B016115710519F0DB01FB
S11313E08D939C938E010F5F1F4F7880872D90E023
S11313F049D1892B11F0E801F5CFBDE27B1205C07C
S11314000F5F1F4F7980C1E008C0EBE27E1204C079
S11314108E010E5F1F4F7980C0E06801F1E0CF1AA2
S1131420D10843E050E064E970E0C60133D1892B70
S1131430E9F4680122E0C20ED11C45E050E06FE8F7
S113144070E0C60127D1892B21F4680187E0C80E1A
S1131450D11CE114F10419F0D701CD92DC92C11131
S1131460F9C060E070E080E89FE7FDC043E050E031
S11314706CE870E0C6010ED1892B51F4E114F1043B
S113148009F4EDC00E5F1F4FF70111830083E7C01D
S1131490680160E070E0CB0100E010E0F601D0EDFF
S11314A0D70DDA3050F52C2F2260622E2C2F2870A5
S11314B0C2FF05C0211127C00F5F1F4F24C0222384
S11314C011F001501109A5E0B0E09B01AC012CD250
S11314D04B015C01880C991CAA1CBB1CC501B401FE
S11314E06D0F711D811D911D6839A9E97A078A075D
S11314F0A9E19A0740F0C66005C0DE3F51F4C3FD80
S113150044C0C8606C2EBFEFCB1ADB0A7080C62DB6
S1131510C5CF2D2F2F7D2531C1F540814D3211F4DA
S1131520C06106C04B3221F0319621E030E006C0A4
S11315303296D60111964C9122E030E0A0EDA40F32
S1131540AA3018F0E21BF30B20C040E050E0403812
S1131550BCE05B075CF49A01220F331F220F331F98
S1131560420F531F440F551F4A0F511D3196DF017F
S113157011972C91A0EDA20FAA3048F3C4FF03C029
S1131580519541955109040F151FC1FF07C0E1147E
S1131590F10421F03197D701ED93FC934DDAC37038
S11315A0C33019F06B017C0106C06B017C01F7FAB2
S11315B0F094F7F8F09420E030E0A901C701B601F7
S11315C02DD1882309F443C017FF06C01195019556
S11315D01109CBEAD0E002C0C3ECD0E05E01B8E16F
S11315E0AB1AB1084601BE2DAF2D90E2E92EF12CC5
S11315F00E151F057CF0FE012591359145915491FE
S1131600B4018B2F9A2F0ED14B01B82FA92F0E198D
S11316101F09EECF2497F594E794CA15DB0541F72B
S11316206401EB2EFA2E8E2D880F8F2D881F8F3F8D
S113163041F020E030E0A901C701B601EFD08111EB
S113164006C082E290E09093CE028093CD02C7015F
S1131650B60109C060E070E080E89FEF04C060E07C
S113166070E080EC9FE7DF91CF911F910F91FF9085
S1131670EF90DF90CF90BF90AF909F908F907F902E
S11316806F900895911131C1803219F089508550BD
S1131690D0F70895FB01DC014150504088F08D9152
S11316A081341CF08B350CF4805E659161341CF040
S11316B06B350CF4605E861B611171F3990B089510
S11316C0881BFCCFFC010590615070400110D8F7D5
S11316D0809590958E0F9F1F0895FC016150704076
S11316E001900110D8F7809590958E0F9F1F089553
S11316F00F931F93CF93DF93FB01238121FD03C03D
S11317008FEF9FEF28C022FF16C0468157812481A6
S113171035814217530744F4A081B1819D012F5FA5
S11317203F4F318320838C93268137812F5F3F4F36
S11317303783268310C0EB01092F182F0084F1850D
S1131740E02D0995892BE1F68E819F8101969F8377
S11317508E83812F902FDF91CF911F910F91089548
S1131760FA01AA27283051F1203181F1E8946F93CE
S11317706E7F6E5F7F4F8F4F9F4FAF4FB1E03ED074
S1131780B4E03CD0670F781F891F9A1FA11D680F12
S1131790791F8A1F911DA11D6A0F711D811D911D45
S11317A0A11D20D009F468943F912AE0269F1124BA
S11317B03019305D3193DEF6CF010895462F47701E
S11317C0405D4193B3E00FD0C9F7F6CF462F4F7079
S11317D0405D4A3318F0495D31FD4052419302D0D7
S11317E0A9F7EACFB4E0A69597958795779567957D
S11317F0BA95C9F700976105710508959B01AC017D
S11318000A2E06945795479537952795BA95C9F7A3
S1131810620F731F841F951FA01D08959FD908F49C
S113182081E008950BD05CC94DD928F052D918F045
S1131830952309F03EC943C9112486C962D9A0F38E
S1131840959FD1F3950F50E0551F629FF001729F51
S1131850BB27F00DB11D639FAA27F00DB11DAA1F70
S1131860649F6627B00DA11D661F829F2227B00DBD
S1131870A11D621F739FB00DA11D621F839FA00D48
S1131880611D221F749F3327A00D611D231F849F98
S1131890600D211D822F762F6A2F11249F575040EF
S11318A08AF0E1F088234AF0EE0FFF1FBB1F661F8A
S11318B0771F881F91505040A9F79E3F510570F043
S11318C0F8C842C95F3FECF3983EDCF38695779500
S11318D06795B795F795E7959F5FC1F7FE2B880F3E
S11318E0911D9695879597F90895992788270895C6
S11318F0052E97FB16F400940FD057FD05D052D94E
S113190007FC02D046F408C05095409530952195C7
S11319103F4F4F4F5F4F0895909580957095619517
S11319207F4F8F4F9F4F08950FD0A59F900DB49F69
S1131930900DA49F800D911D11240895B7FFF4CF3D
S1131940F3DF821B930B0895A29FB001B39FC001E4
S1131950A39F700D811D1124911DB29F700D811DD7
S10D19601124911D0895F894FFCF9F
S113196A0000CF02200001000000505542582C34D8
S113197A302C5F5F5F2C302C302C302C302C302CE8
S113198A302A5F5F00505542582C30302A333300D6
S113199A2530325800474C4C0047534100475356B0
S11319AA00524D4300565447002C0025303264251A
S11319BA3032642E253032642530336400253033C6
S11319CA64253032642E2530326425303364003085
S11319DA303030302E30303030300031323034351F
S11319EA2E393633393500323231322E33353438E2
S11319FA320030303132332E303733353300303819
S1131A0A3630322E393335323400343731372E31C9
S1131A1A313339390030303833332E3931353930AE
S1051A2A0000B6
S9030000FC
